:020000040800F2
:100000000080002031920008A5980008219900087E
:100010009D990008199A0008959A000800000000B0
:100020000000000000000000000000001183010833
:100030000F9B000800000000E1850108D38601083D
:100040008192000881920008819200088192000844
:1000500081920008119B0008139B00088192000800
:10006000819200088192000881920008199B000883
:10007000259B0008319B00083D9B0008499B000818
:10008000559B000800000000819200088192000842
:1000900081920008619B00086D9B0008799B000815
:1000A0007F9B0008819200088192000881920008DD
:1000B00081920008819200088192000881920008D4
:1000C000819200088192000881920008BB9B000881
:1000D00081920008C79B0008EB9B000881920008F2
:1000E0000F9C00088192000881920008819200080C
:1000F00081920008819200088192000800000000AF
:10010000000000008192000800000000179C000819
:10011000819200080000000081920008819200088E
:10012000239C00082F9C00088192000881920008FF
:100130008192000800000000000000008192000889
:100140008192000881920008000000000000000079
:10015000000000000000000000000000000000009F
:100160000000000000000000000000008192000874
:100170008192000800000000000000000000000064
:100180000000000081920008000000000000000054
:10019000000000000000000000000000000000005F
:1001A0000000000000000000819200088192000819
:1001B00081920008819200088192000800000000EE
:1001C0000000000081920008000000000000000014
:0801D0008192000881920008F1
:1002000080B56F4603F0BEFA80B56F4603F032FB4F
:1002100080B56F4603F086FD80B56F4603F002FEA1
:1002200080B56F4603F0B0FE80B56F4603F0BEFEAA
:1002300080B56F4603F0CCFE80B56F4604F078F8C9
:1002400080B56F4604F002F980B56F4604F0CAFA33
:1002500080B56F4604F024FC80B56F4604F050FC76
:1002600080B56F4604F064FC80B56F4604F04CFD29
:1002700080B56F4604F016FF80B56F4604F02EFF80
:1002800080B56F4604F03CFF80B56F4606F04CFA2F
:1002900080B56F4608F0F6FF80B56F460EF0D8FDCA
:1002A00080B56F460EF0BAFE80B56F4610F0CEFAFC
:1002B00080B56F4611F0CCF980B56F4611F048FA61
:1002C00080B56F4613F0D8F880B56F4613F01EFD69
:1002D00080B56F4614F0DAFE80B56F4614F07EFFED
:1002E00080B56F4615F022F980B56F4615F01AFA01
:100300000348044B834202D0034B03B118477047A4
:10031000300100203001002000000000054806499F
:100320000B1AD90F01EBA301491002D0034B03B103
:100330001847704730010020300100200000000005
:1003400010B5064C237843B9FFF7DAFF044B13B11D
:100350000448AFF300800123237010BD300100205A
:1003600000000000D08A010808B5044B1BB1044905
:100370000448AFF30080BDE80840CFE7000000006C
:1003800034010020D08A010810EE103A10EE902AB5
:1003900023F0004302F00042134300EE103A70478E
:1003A00010EE103A184A23F0004393421BDDB3F1DC
:1003B000FF4F02DB30EE400A704700B583B068465D
:1003C00000F056FB00F003000128DDED010A9DED71
:1003D000000A0CD0022812D070B1012001F03AF8C6
:1003E00003B05DF804FBDFED090A00F077BC01F013
:1003F00031F8B1EE400AF3E700F070FCF0E700F0EE
:100400006DFCB1EE400AEBE7D80F493F0000000059
:1004100010EE103A23F0004300EE103A704700BF90
:1004200008B52DED028BF0EE408AB0EE608A00F048
:1004300015F820B9B0EE480ABDEC028B08BDB0EE4D
:10044000480A00F00BF820B1F4EEC88AF1EE10FA79
:10045000F0DDB0EE680ABDEC028B08BD10EE103A7C
:1004600033F000400ED0A0F50003B3F1FE4F0DD3E2
:10047000074B421E9A4207D9A0F1FF40B0FA80F024
:1004800040097047022070470320704704207047DE
:10049000FEFF7F0010EE103A114A23F00043934212
:1004A00018DDB3F1FF4F02DB30EE400A704700B5B4
:1004B00083B0684600F0DCFA400000F00200DDED99
:1004C000010A9DED000AC0F1010001F00BF803B034
:1004D0005DF804FBDFED030A012001F003B800BF63
:1004E000DA0F493F0000000008B52DED028BB0EE99
:1004F000408A00F081F8144B93F900300133F0EE9C
:10050000408A0FD0B4EE488AF1EE10FA0AD6B0EE67
:10051000480AFFF77DFFF7EE007AB4EEE70AF1EE46
:1005200010FA04DCB0EE680ABDEC028B08BD01F0E5
:10053000A7FABDEC028B034621221A600348BDE8EE
:10054000084001F0C9B900BF000000203CA101082B
:1005500000F058B908B52DED028BF0EE408AB0EEF0
:10056000608A00F0F5F90E4B93F9003001330BD09F
:10057000F4EE488AF1EE10FA06D6DFED0A8AB4EE00
:10058000688AF1EE10FA02D0BDEC028B08BD01F0D2
:1005900077FA88EEA80ABDEC028B2123036008BD20
:1005A000000000200000000008B52DED028BB0EE29
:1005B000408A00F08FFB0E4B93F9003001330BD0D3
:1005C000B4EE488AF1EE10FA06D6DFED0A8AB4EEF0
:1005D000E88AF1EE10FA02D4BDEC028B08BD01F0FE
:1005E0004FFA88EEA80ABDEC028B2123036008BDF8
:1005F000000000200000000038B510EE105A25F071
:100600000044B4F17E5F2DED048B00F085807ADC30
:10061000B4F17C5F0FDAB4F1485F80F29C80DFEDCB
:10062000697A70EE277AB7EE007AF4EEC77AF1EEC7
:1006300010FA00F38D80FFF7EBFEF7EE007A37EE4D
:10064000C00AB6EE008A20EE088A9FED5F7ADFEDE1
:100650005F6A9FED5F6A9FED5F5ADFED5F5ADFEDE6
:100660005F8AE8EE076A9FED5E7AA8EE067A9FED54
:100670005D6AA6EE885AA7EE086A9FED5B7ADFED09
:100680005B6AE5EE085AA6EE087AE5EE886AE7EEC0
:10069000087AE6EE888AB0EE480AB0EE679A00F073
:1006A00019FB534B9C4268EE888A42DC10EE103AEC
:1006B00023F47F6323F00F0306EE903AA6EEE68A5A
:1006C00070EE267A88EE895AC8EE274A9FED497A5D
:1006D000DFED497AB0EE006AA4EEC67A30EE000A89
:1006E000F0EE675AE6EEC65A90EE057A37EE657A76
:1006F00037EEC77A002D0ADCBDEC048BB1EE477AE9
:10070000B0EE470A38BD70EE407A87EEA77ABDECAE
:10071000048BB0EE470A38BD9FED367ADFED377AAD
:1007200020EE077ABDEC048BA0EE277AB0EE470AE4
:1007300038BD88EE896A9FED327ADFED307AA0EE1F
:10074000060AF0EE006AA0EE267A37EEC77AD1E705
:10075000B0EE407ADBE760EE007A9FED1B7ADFEDCA
:100760001B6A9FED1C6ADFED1A5A9FED1B5AE7EEDC
:10077000876ABDEC048BA6EEA76A9FED197ADFEDC0
:10078000196AA7EEA57AA6EE275AE7EE276ADFEDEB
:10079000175A9FED156A9FED117AE5EE275AA6EEDE
:1007A000A76AA5EEA77AF7EE006AE6EE276A67EE7B
:1007B000277AB0EE407A87EEA66AA0EE067AB0EE0F
:1007C000470A38BDCAF2497108EF1138047F4F3A21
:1007D0002EC69D3D461124BDA80A4E3EABAA2A3E18
:1007E000613330BF2D57014039D119C090B0A6BE3A
:1007F0009999793F2EBD3BB3DB0F493FDB0FC93FD2
:100800002EBD3B3310B582B0CDED010A019B23F024
:100810000042B2F1FF4FF0EE407A30DC10EE100AE9
:1008200020F00041B1F1FF4F29DCB3F17E5F42D0EF
:100830009C1704F0020444EAD07431B37AB3B2F1E5
:10084000FF4F40D0B1F1FF4F29D08A1AB2F1F45FC7
:100850004FEAE25134DA002B42DA3C3140DA9FEDC4
:10086000340A012C4ED0022C43D064B19FED317A72
:10087000DFED317A30EE070A30EE670A03E09DEDD6
:10088000017A37EE270A02B010BD022C10D09FED7E
:100890002B0A032C18BFB0EE670A02B010BD9FED03
:1008A000280ADFED287A0028B8BFB0EE670AEAE729
:1008B0009FED210AE7E702B0BDE8104000F0F2BE6C
:1008C0009FED1F0ACDE7B1F1FF4F04F1FF3420D0B7
:1008D000022C26D81C4B03EB840494ED030AD2E7C8
:1008E0009DED017A87EE870AFFF792FD00F0DAFEB0
:1008F000B7E79FED107ADFED107A30EE070A37EE9A
:10090000C00AC0E710EE103A03F1004300EE103ABF
:10091000B9E7022C08D80C4B03EB840494ED000AD1
:10092000B1E79FED030AAEE79FED080AABE700BF12
:10093000000000002EBDBB33DB0F4940DB0F49C078
:10094000DB0FC93FDB0FC9BFE88A0108DB0F493F56
:1009500030B583B0CDED010A019D35F0004041D0A6
:1009600010EE10EA2EF00043B3F1FF4F3ADAB0F187
:10097000FF4F37DC83423BDB0EF000443AD01EF0E1
:10098000FF4F56D1190200296FF07D0204DD4900A6
:10099000002902F1FF32FADC15F0FF4F57D10102B6
:1009A0006FF07D0C03D449000CF1FF3CFBD512F134
:1009B0007E0F47DBCEF3160343F400031CF17E0FDA
:1009C0003ADBC5F3160040F40000B2EB0C0204D190
:1009D00017E00FD04B00013A13D0191A0029F8DAAA
:1009E0005B00F8E7DDED017A60EE277A87EEA70A73
:1009F00003B030BD1D4B03EB547393ED000A03B0FD
:100A000030BD181A58BF03461BB9F3E75B000CF161
:100A1000FF3CB3F5000FF9DB1CF17E0F1CDBA3F5E7
:100A200000030CF17F0C234343EACC5300EE103A51
:100A3000DEE7DA157F3AAFE76FF07D01A1EB0C013D
:100A40008840C2E76FF07D01891A8B40B6E74FEA14
:100A5000E05CACF17F0CAAE76FF07D02A2EB0C0C1E
:100A600043FA0CF3234300EE103AC1E7008B010870
:100A700070B510EE103A894A23F00044944286B0D3
:100A8000054670DD864A944210EE106A22DC002B87
:100A9000DFED847A844A24F00F04B0EE407A40F30C
:100AA000E480944270EE677A09BFDFED806A9FEDC3
:100AB000807A9FED807A77EEE67A012077EEC76A3A
:100AC00077EEE67AC5ED006A77EEC77AC5ED017A72
:100AD00006B070BD784A944254DDB4F1FF4F49DA54
:100AE000E215863AA4EBC25307EE903ABDEEE77AE0
:100AF000DFED726AB8EEC77A77EEC77A8DED037ACA
:100B000067EEA67ABDEEE77AB8EEC77A77EEC77AD7
:100B10008DED047A67EEA67AF5EE407AF1EE10FAE2
:100B2000CDED057A40F09080B5EE407AF1EE10FA06
:100B300014BF02230123624901910221009103A8FD
:100B4000294600F04DF9002EC2DA95ED007AD5ED78
:100B5000017AB1EE477AF1EE677A85ED007AC5ED5C
:100B6000017A4042B4E7002285ED000A426000208D
:100B700006B070BD70EE407A0020C5ED017AC5ED7B
:100B8000007AA5E7FFF744FC9FED4E7A9FED456A9A
:100B9000F6EE007AE0EE077A9FED457AFDEEE77A11
:100BA00017EE900AF8EEE76A1F28A6EEC60A66EE70
:100BB000877AB1EE666A1EDC434A411E24F0FF03C9
:100BC00052F82120934216D030EE677A85ED007AF4
:100BD00030EE470A002E30EE670A85ED010ABFF6B7
:100BE00077AFB1EE477AB1EE400A85ED007A85ED38
:100BF000010A40426CE730EE677AE21517EE103AD0
:100C0000C3F3C753C3EBD454082CDFDDDFED277AE1
:100C10009FED287AF0EE405AE6EE275A30EE650A4C
:100C2000A6EE270AF0EE407AD6EE877A35EEE77A1E
:100C300017EE103AC3F3C753D21A192A06DCB0EEE6
:100C4000650A85ED007AC3E7032374E79FED1F7AF9
:100C50009FED1F5AB0EE650AA6EE070A75EEC07A40
:100C6000E6EE077AD6EE857AAEE7944270EE277A02
:100C700009BFDFED0E6A9FED0E7A9FED0E7A77EEDB
:100C8000A67A4FF0FF3077EE876A77EEE67AC5ED09
:100C9000006A77EE877AC5ED017A19E7D80F493FE8
:100CA000E3CB1640800FC93FD00FC93F0044353712
:100CB0004344353708A3852E800F49430000804305
:100CC000888B010884F9223F088B010800A3852E38
:100CD00032318D24B1EEC00A704700BF10EE103AD9
:100CE00023F00043B3F1485F2CDAFDEEC07A17EE33
:100CF000903A002B60D020EE007ADFED317A9FED44
:100D0000315ADFED315A9FED316ADFED316AA7EEDE
:100D1000275ADFED307AE7EE055AA7EE256AE7EEAF
:100D2000067AE7EE276A67EE266A60EEC00AF6EEFC
:100D3000007AE7EE260AB7EE000AD7EE270A30EE71
:100D4000600A704720EE007ADFED1D7A9FED1D5A94
:100D5000DFED1D5A9FED1D6ADFED1D6A1E4AA7EEED
:100D6000275A9342DFED1B7AE5EE075AA5EE876A14
:100D7000E6EE077AE7EE876A66EE876AD5DD174A00
:100D8000934214DC03F17F4307EE903AB7EE006A1A
:100D900036EE676A60EEC00AF6EE005AD7EE257AA4
:100DA000E7EE260A77EEE00A36EE600A7047B6EE06
:100DB000076AF5EE027AEDE7B7EE000A704700BF6A
:100DC0004ED747ADF6740F317CF293B4010DD03796
:100DD000ABAA2A3D610BB6BA9999993E0000483FEB
:100DE0002DE9F04F2DED048BDBB01C4603930691EB
:100DF000A24B6899089253F82150111D824604F1C4
:100E0000FF38C0F2A382D31E48BF131DDB1002932C
:100E10000133DB000793DDE907239B1A0593029B4F
:100E200015EB0801A3EB080316D401319FED947A6A
:100E3000699819441EAA002BA4BF50F8234007EE5E
:100E4000904A03F10103ACBFF8EEE77AF0EE477A7F
:100E50008B42E2EC017AEED1002DC0F2E782039BD7
:100E60001EAA02EB830446AE4FEA830C4046EF18FD
:100E70000AEB8301B8F1000FDFED817A09DB22462E
:100E80005346F3EC016A32ED017A8B42E6EE877A43
:100E9000F7D10130B842E6EC017A04F10404E9D15B
:100EA00009AB0AAF03EB850907EB8503083B9FED10
:100EB000769ADFED748A059804930AEB0C0446AE2B
:100EC00000955AAB03EB8503002D13ED140A4FEA8E
:100ED000850B16DD06EB85033A4660EE097AB0EE27
:100EE000407AFDEEE77A73ED016AF8EEE77AB342F5
:100EF000A7EEE87A37EEA60ABDEEC77AA2EC017A31
:100F0000EBD1019000F0EEFCB0EE408AB4EE000AA6
:100F100028EE000A00F09AFCF2EE007AA0EE678A52
:100F200001980028FDEEC89AF8EEE97A38EE678A53
:100F300079DD05F1FF3EC0F1080357F82E1041FAA4
:100F400003FC0CFA03F3CB1AC0F1070219EE901A56
:100F500043FA02F26144002A47F82E3009EE901A53
:100F600069DCB5EE408AF1EE10FA40F0C080009BDB
:100F700005F1FF3B5B4510DC05F18043013B07EBCE
:100F800083030021944653F804294B4541EA0201AA
:100F9000F9D16246002940F0F280009B013B57F8EE
:100FA0002330002B40F0E780049B4FF0010C53F8F6
:100FB00004290CF1010C002AF9D06B1CAC449E46AC
:100FC000039A5119029A02EB030B0BF1804B699AB9
:100FD0000BF1FF3B06EB83051EAB02EB8B0B03EB28
:100FE0008101DBED017A9FED267AF8EEE77AB8F120
:100FF000000F0BF1040BC1ED007A0A4601F1040168
:1010000009DB534601E072ED017AF3EC016AA34279
:10101000A6EEA77AF7D10EF1010EE645A5EC017A0E
:10102000DFDD65464DE740F09C806B1E57F82320BE
:101030001212002A95DD19EE903A002D03F10103FA
:1010400009EE903A40F39881396800297FD1012D4B
:1010500026D03B464FF0010C53F8041F00297AD0EC
:101060000CF10103C1F580719D4247F82C1016DD8B
:1010700057F82310BB4407EB83030AE0A08E010856
:1010800000000000000080430000803B0000C93FDA
:101090001968C1F1FF0143F8041B5B45F8D1012138
:1010A00000280CDD012800F04881022807D105F155
:1010B000FF3C57F82C3003F03F0347F82C30022A4E
:1010C0007FF44FAFB7EE000A30EE488A00293FF4B4
:1010D00048AF0992019000F005FC38EE408A099A69
:1010E0000198B5EE408AF1EE10FA3FF440AF02925B
:1010F000DDE90732B0EE480A981A0195009D00F02C
:10110000F1FB1FED207AB4EEC70AF1EE10FADDE92B
:101110000132C0F259815FED247A059960EE277A99
:101120000831FDEEE77A0591F8EEE77A03F1010B5D
:10113000A7EEC70AFDEEE77ABDEEC00A10EE101A60
:1011400047F8231017EE903A47F82B302EE0012392
:101150004FF0000C86E70CF1010CAC457FF47CAF3E
:101160009EE7F6EE007AB4EEE78AF1EE10FA80F22E
:10117000F2800022F5E66B1C9E469C4620E705990E
:10118000A1F1080057F82B1005902B46009D69B976
:1011900003F18043023B07EB8303014653F8040944
:1011A0000BF1FF3B08390028F8D005910598009213
:1011B000B7EE000A00F096FBBBF1000F009AC0F2F8
:1011C00028814FEA8B0E46AB03EB0E060EF1040CA2
:1011D0001FED537A07EB0C03311D73ED017AF8EE26
:1011E000E77ABB4267EE807A20EE070A61ED017A6A
:1011F000F3D1002D1FED5B6A4FF0000420DB934814
:10120000DFED937AB0EE467A3146002303E09C424C
:1012100008DBB0EC017AF1EC016A01339D42E6EEA5
:10122000877AF4DA5AAB03EB8403A34543ED287ABB
:10123000A6F1040604F1010305D0002D1C46DEDAF8
:10124000DFED837AEEE7689902291CDC002900F3C0
:1012500095800FD132ABDFED7E7A9C443CED017A74
:10126000634577EE877AF9D10AB1F1EE677A069B8A
:10127000C3ED007A19EE903A03F007005BB0BDECC5
:10128000048BBDE8F08F689B032BF3D1BBF1000FFB
:1012900000F0D4800EF5B4736B4432A913ED287AB4
:1012A00001EB8B0373ED017AF0EE476A37EE277A94
:1012B000994277EEC77A83ED007A77EEA67AC3ED8E
:1012C000017AEFD1BBF1010F40F3B8800BF1804BF5
:1012D0000EF5B4730BF1FF3B0DEB030E4FEA8B0BD6
:1012E0000BF104031EED287A0B4433A873ED017A49
:1012F000F0EE476A37EE277A984277EEC77A83EDA9
:10130000007A77EEA67AC3ED017AEFD10BF1080BE4
:10131000DFED4F7A01EB0B03083133ED017A99428F
:1013200077EE877AF9D1002A56D10699329A339B03
:101330000A604B60C1ED027A9CE705F1FF3C57F86B
:101340002C3003F07F0347F82C30B8E608230793CE
:10135000002302935FE519EE903A002D03F101039B
:1013600009EE903AC8BF02223FF76EAEF7EE007A60
:1013700037EEC88A0222F4E5002191E632A9DFEDBA
:10138000347A01EB830333ED017A994277EE877A61
:10139000F9D19DED327A8ABB069BBBF1000FC3EDFC
:1013A000007A77EE677A0BDD33A90123B1EC017A7D
:1013B00001339B4577EE877AF8DA0AB1F1EE677A66
:1013C000069BC3ED017A55E7BDEEC00A9B4610EEC1
:1013D000101A47F82310E9E6DDED326A9DED337A05
:1013E000069BF1EE666AB1EE477AF1EE677AC3EDDD
:1013F000006A83ED017AC3ED027A3BE7069BF1EECA
:10140000676ABBF1000F77EE677AC3ED006ACBDC49
:10141000D4E7689B022B0DDC002B14DC7FF42AAF91
:10142000DFED0B7A002A3FF422AF1EE7039B4FEA61
:10143000830C35E5689B032B7FF41CAFDFED047A4A
:10144000002AC9D171E7DFED027AA2E7B08E010868
:101450000000000010EE103A23F00043B3F1485FA3
:1014600004DAFDEEC07A17EE903A5BB360EE007AD4
:101470009FED157ADFED155A9FED156ADFED156AC0
:10148000E7EE875A9FED147AA5EEA76A20EE275A59
:10149000E6EE276AA6EEA77A30B9DFED106AE7EE2E
:1014A000876AA6EE850A704727EE457AF6EE006A4F
:1014B000A0EEA67ADFED0A6AD7EE270AE5EE260A45
:1014C00030EE600A704700BFD3C92E2F342FD7B239
:1014D0001BEF3836010D50B98988083CABAA2ABEEB
:1014E000ABAA2A3E08B510EE103A23F00042B2F142
:1014F000465FF0EE407A0FDABDEEC07A17EE101AB2
:1015000001BB431C134300F0A080012803D0BFEEB1
:10151000007A87EE270A08BD50498A4212DB002B69
:10152000B8BFF1EE407A9FED4E7A9FED4E0AB8BFFC
:10153000F1EE600A70EE677A37EE600ADFED4A0A74
:1015400070EE277A67EEA76ADFED484ADFED485A6A
:101550009FED485A9FED486A404926EEA67A8A4296
:10156000E7EE245AA7EE056ADFED444A9FED445AA0
:10157000E5EE874AA6EE075ADFED425A9FED426A32
:10158000E4EE875AA5EE076ADFED404A9FED405A28
:10159000E5EE874AA6EE075A9FED3E6ADFED3E5A1A
:1015A000A4EE876AE5EE075AB0EE467AA5EEA67A73
:1015B00027EEA65AB0EE606AA7EE056ADFED374A5D
:1015C000E6EE260AE5EE240A37EEA00A1FDA012825
:1015D000A1D0BFEE007AC7EE006A314B10EE102AA0
:1015E0001A4006EE102A16EE902A76EE677A13401D
:1015F00000EE103AB7EE007A70EEE70AF0EE477AA6
:10160000E6EE007AE0EE807AA7EEA60A08BD07EEC5
:10161000100AB8EEC77A60EE005A30EE070A9B1740
:10162000C5EE806A03F00203C3F10103B0EE006A65
:1016300076EEE00A00EE103A77EEE07AB8EEC00AF5
:10164000A7EEC67A20EE070A08BDFEF7E1FEB7EE68
:10165000007AF0EE407A87EE270A08BD40A12C3FC1
:1016600068212233DA0F493F000000005FAE9BB7CC
:1016700045F4A3388453D9377AC09538C8261A3A26
:10168000B937813916696B3B48DEBE3AA427B33CB3
:101690001F37113C8988083ED10D5D3DABAAAA3E9B
:1016A00000F0FFFF38B510EE105A25F00044B4F1F9
:1016B000A14FF0EE407A0BDBB4F1FF4F58DCDFEDC9
:1016C000517A9FED510A002DC8BFB0EE670A38BDB0
:1016D0004E4B9C425BDCB4F1445F4CDB4FF0FF327D
:1016E00067EEA76ADFED4A4ADFED4A5A9FED4A5A94
:1016F0009FED4A4A26EEA67AB0EE666AE7EE245AD5
:10170000531CDFED474ADFED476AA5EE875AE7EE47
:10171000246ADFED455ADFED454AE6EE875AA5EE2D
:10172000074A9FED435ADFED436AA5EE875AE4EE80
:10173000074ADFED415AE4EE876AE5EE075A66EEA6
:10174000866A25EE877A37D03C4B03EB820376EE30
:10175000876A93ED000A93ED047A96EEA70A002DAE
:1017600070EE677A37EE670AB1DAB1EE400A38BD3B
:1017700030EE000A38BD9FED327A30EE077AF7EE90
:10178000006AB4EEE67AF1EE10FAA7DD38BDFEF796
:101790003FFE2C4B9C4216DCA3F5D0039C4227DC79
:1017A000F0EE007ABFEE007AA0EE277A002230EE4B
:1017B000270AC7EE007A93E776EE876AE6EEE77AC5
:1017C000B0EE670A38BD204B9C420BDCF7EE087A7E
:1017D000B7EE007AA0EE277A022230EE670AC0EE5A
:1017E000077A7DE7BFEE007AC7EE007A032277E73B
:1017F000F7EE007A30EE677A30EE270A0122C7EE64
:10180000007A6DE7DB0FC93FDB0FC9BFFFFFDF3E8B
:10181000D769853C59DA4B3D356B883D6E2EBA3D14
:1018200021A215BD6BF16EBD95879DBD2549123E68
:10183000388EE3BDABAAAA3ECDCC4CBED88E0108F3
:10184000CAF24971FFFF973FFFFF1B4010EE102ABD
:10185000C2F3C7537F3B162B22F0004128DC002B3C
:1018600018DB1A4919410A4221D0DFED197A70EECE
:10187000277AF5EEC07AF1EE10FA18DD002A04DAC4
:101880004FF4000040FA03F31A4422EA010300EE89
:10189000103A7047DFED0E7A70EE277AF5EEC07AD7
:1018A000F1EE10FA03DD002A08DB9FED0A0A70470B
:1018B000B1F1FF4FFBD330EE000A7047FFEE007A24
:1018C000002918BFB0EE670A704700BFFFFF7F0016
:1018D000CAF24971000000009FED010A704700BF85
:1018E0000000C07F82B08DED010A019B33F0004201
:1018F0002AD0B2F1FF4F23D213F0FF4F28D19DED34
:10190000017ADFED2A7A2A4B67EE277A9842CDEDED
:10191000017A37DB019BC3F3C752193A0244FE2A0E
:101920001ADD9FED240A9FED247A019B002BF0EE37
:10193000407AB8BFB0EE470A20EE270A02B07047DF
:1019400030EE000A02B070479DED010A02B0704708
:10195000D20D0244FE2AE4DC002A0BDC12F1160F41
:1019600017DA4CF250339842DBDC9FED140A9FEDFE
:10197000147ADAE723F0FF4343EAC25300EE103A49
:1019800002B070479FED0D0ADDED017A27EE800A67
:10199000D8E7193223F0FF4343EAC253DFED097A57
:1019A00007EE103A27EE270ACCE700BF0000004CF4
:1019B000B03CFFFFCAF24971CAF249F16042A20D80
:1019C0006042A28D0000003308B5062000F0B0FA96
:1019D000012001F0D5FE00BF002200F003B800BFD7
:1019E00000F0AAB870B4840746D04C1E002941D03C
:1019F000D5B2034602E0611EE4B30C4603F8015B76
:101A00009907F8D1032C2ED9D5B245EA05250F2C1C
:101A100045EA054519D9264603F11001103E0F2E5F
:101A200041F8105C41F80C5C41F8085C41F8045C3A
:101A300001F11001F2D8A4F1100121F00F0104F01E
:101A40000F041031032C0B440DD91E4621460439D6
:101A5000032946F8045BFAD8211F21F00301043161
:101A60000B4404F003042CB1D2B21C4403F8012B44
:101A7000A342FBD170BC70470C460346C2E700008E
:101A8000014B1868704700BF0400002070B50D4E70
:101A90000D4D761BB61006D0002455F8043B0134DA
:101AA0009847A642F9D1094E094D761B17F010F858
:101AB000B61006D0002455F8043B01349847A642DE
:101AC000F9D170BD48A1010848A101084CA1010845
:101AD00048A10108032A70B515D940EA010C1CF091
:101AE000030F04460B4621D1194620460E680568AF
:101AF000B54204F1040403F1040317D1043A032AA4
:101B000020461946F0D8541EA2B100F1FF3C01391D
:101B100001E0C3180CD01CF801EF11F8012F964515
:101B2000A4EB0C03F5D0AEEB020070BD541EECE745
:101B3000184670BD104670BD844641EA000313F09C
:101B400003036DD1403A41D351F8043B40F8043BC4
:101B500051F8043B40F8043B51F8043B40F8043B87
:101B600051F8043B40F8043B51F8043B40F8043B77
:101B700051F8043B40F8043B51F8043B40F8043B67
:101B800051F8043B40F8043B51F8043B40F8043B57
:101B900051F8043B40F8043B51F8043B40F8043B47
:101BA00051F8043B40F8043B51F8043B40F8043B37
:101BB00051F8043B40F8043B51F8043B40F8043B27
:101BC00051F8043B40F8043B403ABDD2303211D3C7
:101BD00051F8043B40F8043B51F8043B40F8043B07
:101BE00051F8043B40F8043B51F8043B40F8043BF7
:101BF000103AEDD20C3205D351F8043B40F8043BC7
:101C0000043AF9D2043208D0D2071CBF11F8013BC4
:101C100000F8013B01D30B8803806046704700BF8A
:101C2000082A13D38B078DD010F003038AD0C3F199
:101C30000403D21ADB071CBF11F8013B00F8013B7B
:101C400080D331F8023B20F8023B7BE7043AD9D33A
:101C5000013A11F8013B00F8013BF9D20B7803700F
:101C60004B7843708B7883706046704788420DD9FB
:101C70008B1883420AD900EB020CBAB1624613F802
:101C800001CD02F801CD9942F9D170470F2A0ED843
:101C9000034602F1FF3C4AB10CF1010C013B8C44BC
:101CA00011F8012B03F8012F6145F9D1704740EA83
:101CB00001039B0750D1A2F1100370B501F1200C74
:101CC00023F00F0501F1100E00F11004AC441B09C4
:101CD0005EF8105C44F8105C5EF80C5C44F80C5C38
:101CE0005EF8085C44F8085C5EF8045C44F8045C48
:101CF0000EF1100EE64504F11004E9D1013312F0A3
:101D00000C0F01EB031102F00F0400EB031327D0BB
:101D1000043C24F003064FEA940C1E441C1F8E461C
:101D20005EF8045B44F8045FB442F9D10CF101049D
:101D300002F0030203EB840301EB840102F1FF3C98
:101D40004AB10CF1010C013B8C4411F8012B03F852
:101D5000012F6145F9D170BD02F1FF3C03469BE7BD
:101D60002246EBE7830730B548D0541E002A3FD007
:101D7000CAB2034601E0013C3AD303F8012B9D07A8
:101D8000F9D1032C2DD9CDB245EA05250F2C45EA12
:101D9000054536D9A4F1100222F00F0C03F1200EF4
:101DA000E6444FEA121C03F1100242E9045542E9ED
:101DB000025510327245F8D10CF1010214F00C0FEB
:101DC00003EB021204F00F0C13D0ACF1040323F068
:101DD00003030433134442F8045B9342FBD10CF039
:101DE00003042CB1CAB21C4403F8012B9C42FBD162
:101DF00030BD64461346002CF4D1F9E7034614467F
:101E0000BFE71A46A446E0E738B5446C0CB10020A1
:101E100038BD8021054600F0DBFC0246686430B125
:101E2000031F7C3243F8044F9342FBD1EFE74FF09E
:101E3000FF3038BD1F29F8B5054608D8466C0C465A
:101E400017464EB156F8240046F82470F8BD162304
:101E500003604FF0FF30F8BD802100F0B9FC06466A
:101E6000686440B1031F00F17C05002143F8041FA2
:101E70009D42FBD1E6E74FF0FF30F8BD1F2938B592
:101E8000054620D8426C0C466AB152F8213053B155
:101E9000012B16D0591C10D00025204642F82450A2
:101EA0009847284638BD284600F0F8F822460146F3
:101EB0002846BDE8384000F0DBB816230360012057
:101EC00038BD002038BD162303604FF0FF3038BD09
:101ED0001F292AD8426C38B50C46054682B152F803
:101EE000243002EB84024BB1591C19D0012B15D0C0
:101EF0000025204615609847284638BD012038BD8A
:101F0000802100F065FC0246686458B1031F00217F
:101F10007C3043F8041F9842FBD1E0E7032038BD32
:101F2000022038BD4FF0FF3038BD4FF0FF30704712
:101F300038B5144B1F281D681FD86A6C044662B15F
:101F400052F820304BB1012B15D0591C0FD0002571
:101F500042F820509847284638BD284600F09EF8A1
:101F6000224601462846BDE8384000F081B81623D5
:101F70002B60012038BD002038BD16232B604FF0A8
:101F8000FF3038BD04000020124B1F2870B51E68BA
:101F900008D80D46716C044649B151F8240041F847
:101FA000245070BD162333604FF0FF3070BD802188
:101FB000304600F00DFC0146706440B1031F00F193
:101FC0007C0C002243F8042F6345FBD1E5E74FF07A
:101FD000FF3070BD0400002038B50B4B1D686C6CE1
:101FE0000CB1002038BD8021284600F0F1FB686468
:101FF00038B1031F00F17C0243F8044F9342FBD138
:10200000EFE74FF0FF3038BD0400002038B5174B24
:102010001F281D6826D86A6C044682B152F8243005
:1020200002EB84024BB1591C1AD0012B16D00025AB
:10203000204615609847284638BD012038BD8021CC
:10204000284600F0C5FB0246686458B1031F002112
:102050007C3043F8041F8342FBD1DFE7032038BD07
:10206000022038BD4FF0FF3038BD00BF0400002013
:1020700070B50C46084D03460026204611461C4606
:102080002E6001F067FB431C00D070BD2B68002B55
:10209000FBD0236070BD00BF5401002001F052BB93
:1020A000A2EB0300704700BF02780B78012A28BF1B
:1020B0009A42F5D16DE9044540EA0104CDE9026791
:1020C0006FF0000C4FEA447212B380EA010414F07E
:1020D000070F6AD100F0070420F0070004F00305A1
:1020E00021F007014FEAC505F0E8042314F0040FBE
:1020F000F1E804670CFA05F462EA040266EA0406F1
:102100000AD063EA0403624667EA0407664603E00E
:10211000F0E80423F1E8046782FA4CF582EA060449
:10212000A4FA8CF46CBB83FA4CF583EA0705A5FA94
:102130008CF595B950E9022351E9026782FA4CF512
:1021400082EA0604A4FA8CF483FA4CF583EA0705C4
:10215000A5FA8CF52543DBD09CB92DBAB5FA85F4E8
:1021600024F0070427FA04F1DDE9026723FA04F3F7
:1021700003F0FF0001F0FF01FDE80445A0EB0100C2
:10218000704724BAB4FA84F424F0070426FA04F160
:10219000DDE9026722FA04F202F0FF0001F0FF011C
:1021A000FDE80445A0EB0100704714F0030F3CD19B
:1021B00010F0030428D150F8082B51F8083B82FA9C
:1021C0004CF582EA0305A5FA8CF55DB950F8042CAC
:1021D00051F8043C82FA4CF582EA0305A5FA8CF525
:1021E000002DE8D02DBAB5FA85F424F0070423FABF
:1021F00004F122FA04F202F0FF0001F0FF01FDE811
:102200000445A0EB010070474FEAC40420F003002E
:1022100050F8082B21F0030151F8083B0CFA04F4A4
:1022200062EA040263EA0403C9E710F003041AD067
:10223000A1EB040120F00300E40750F8042B06D0C2
:102240000FD28B785FFAA2F4E41A06D12BB1CB78C7
:102250005FFAB2F4E41A00D11BB920465DF8104BC6
:10226000704701F1040150F8042BCC0721F0030161
:1022700051F8043B48D824D222F07F4482FA4CF52E
:1022800094EA1325A5FA8CF50AD165B951F8043BF7
:1022900084EA0204B4EB036F0ED150F8042BEBE791
:1022A0004FEA132355E035F07F454DD10878FDE81E
:1022B0000445C0F1000070474FEA126203F0FF03CB
:1022C00047E002EA1C4482FA4CF594EA1345A5FA69
:1022D0008CF50AD165B951F8043B84EA0204B4EBE9
:1022E000034F0CD150F8042BEBE74FEA134330E0D7
:1022F00015EA1C4528D10B884FEA124229E04FEA23
:10230000124203EA1C4324E002F0FF0482FA4CF577
:1023100094EA1365A5FA8CF50AD165B951F8043B26
:1023200084EA0204B4EB032F09D150F8042BEBE745
:102330004FEA13630DE015F0FF0F05D10B684FEA6C
:10234000122223F07F4304E04FF00000FDE8044533
:10235000704712BA1BBA82FA4CF482EA0304A4FA58
:102360008CF5B5FA85F402FA04F203FA04F34FEAA5
:102370001260FDE80445A0EB1360704780EA01029B
:10238000844612F0030F4FD111F0030F32D14DF8F4
:10239000044D11F0040F51F8043B0BD0A3F10132AE
:1023A0009A4312F0803F04BF4CF8043B51F8043BC1
:1023B00016D100BF51F8044BA3F101329A4312F039
:1023C000803FA4F101320BD14CF8043BA24312F040
:1023D000803F04BF51F8043B4CF8044BEAD023463D
:1023E0000CF8013B13F0FF0F4FEA3323F8D15DF8EF
:1023F000044B704711F0010F06D011F8012B0CF8B7
:10240000012B002A08BF704711F0020FBFD031F82E
:10241000022B12F0FF0F16BF2CF8022B8CF80020B5
:1024200012F47F4FB3D1704711F8012B0CF8012B38
:10243000002AF9D1704700BF000000000000000032
:1024400090F800F06DE9024520F007016FF0000CF4
:1024500010F0070491F820F040F049804FF000049C
:102460006FF00700D1E9002391F840F000F1080077
:1024700082FA4CF2A4FA8CF283FA4CF3A2FA8CF3AF
:102480004BBBD1E9022382FA4CF200F10800A4FA16
:102490008CF283FA4CF3A2FA8CF3E3B9D1E904236A
:1024A00082FA4CF200F10800A4FA8CF283FA4CF3A1
:1024B000A2FA8CF37BB9D1E9062301F1200182FA5B
:1024C0004CF200F10800A4FA8CF283FA4CF3A2FA61
:1024D0008CF3002BC6D0002A04BF04301A4612BA6F
:1024E000B2FA82F2FDE8024500EBD2007047D1E972
:1024F000002304F00305C4F100004FEAC50514F001
:10250000040F91F840F00CFA05F562EA05021CBFD1
:1025100063EA050362464FF00004A9E7A2B330B5B1
:1025200040EA0104A40784460B462AD09CF8000028
:102530000C7884422FD1012A0DD0E64660B11EF8F6
:10254000010F11F8014F6FEA0E03A042134422D18C
:102550001CEB0303F2D1002030BD0468194653F888
:10256000045BA4F1013EAC4284462EEA040E00F165
:1025700004000BD1043A84461946ECD01EF0803F8B
:10258000E9D1032AE9D8D1E7104670479CF800004A
:102590000C78A042D1D0001B30BD00BF30B540EA5E
:1025A0000104A30701D1032A0FD8844601F1FF3E9D
:1025B00007E01EF8011F03F8011B541EC1B19C4621
:1025C00022466346002AF4D130BD0B4684461946A4
:1025D00053F8045BA5F1013424EA050414F0803FAC
:1025E000E4D1043A032A4CF8045B1946EFD8DDE73E
:1025F0006244002CE8D003F8011B9342FBD130BDAC
:1026000071B1034600EB010C01E0634506D01A46A8
:10261000013311780029F8D1101A7047181A704741
:102620000846704771B138B503460C46002501E0F5
:10263000431C05462146184600F036F90028F7D11C
:10264000284638BD00F030B92DE9F04F81464548A5
:102650008E4675461EF801CB10F80C4014F00804A5
:10266000F7D1BCF12D0FE34654D0BCF12B0F08BFBE
:102670009EF800B06FF0004808BF05F1020E1BB1D4
:10268000102B4FD01F4604E0BBF1300F55D00A236A
:102690001F460025B8FBF7F6284607FB168A07E019
:1026A000864215D329D007FB00C001251EF801BBC7
:1026B000ABF1300CBCF1090F06D9ABF1410CBCF108
:1026C000190F08D8ABF1370C63450DDD002DE7DAA3
:1026D0004FF0FF35EAE7ABF1610CBCF1190F03D8FD
:1026E000ABF1570C6345F1DC002D0BDB04B140422C
:1026F0000AB195BB1160BDE8F08FE245D3DA4FF027
:10270000FF35D3E72223C9F800301AB30EF1FF31A9
:102710004046EFE79EF800B04FF0004805F1020E8A
:102720000124ACE7BBF1300FACD19EF8000000F003
:10273000DF00582807D01F46ABE79EF8003003F0B3
:10274000DF03582B0BD110279EF801B03B460EF14A
:10275000020E9EE74046BDE8F08F8046D6E708238C
:102760001F4696E7F98E0108012B02D0242B00D8D2
:102770006AE710B5FFF784F916230360002010BD47
:10278000012A08D0242A06D8844606481346006841
:102790000A46614658E710B5FFF772F91623036041
:1027A000002010BD04000020012A08D0242A06D8E9
:1027B00084460648134600680A46614644E710B559
:1027C000FFF75EF916230360002010BD040000200F
:1027D000F8B5CD1C25F0030508350C2D38BF0C25A8
:1027E000002D064623DBA94221D8254F00F0C2F870
:1027F0003A6822B3144603E063682246FBB11C46E4
:1028000023685B1BF8D40B2B15D8636894420CBF6C
:102810003B605360304600F0AFF804F10B00231D1D
:1028200020F00700C21A01D01B1AA350F8BD0C23D8
:1028300033600020F8BD23601C442560EAE7796816
:10284000C9B12946304600F01DF8431C0CD0C41C09
:1028500024F00304A04205D0211A304600F012F8FB
:10286000013001D02560D5E70C233046336000F0FD
:1028700083F80020F8BD304600F004F87860E0E707
:102880004C01002038B5074D0022044608462A6056
:1028900000F068FF431C00D038BD2B68002BFBD034
:1028A000236038BD5401002011F0FF01034644D0DD
:1028B000820732D110B5046841EA012E4EEA0E4E6D
:1028C0008EEA0402A2F1013323EA0203A4F10132E9
:1028D00022EA0402134313F0803F0FD150F8044F53
:1028E00084EA0E0CA4F10133ACF1013223EA0403B3
:1028F00022EA0C02134313F0803FEFD0037823B990
:1029000036E010F8013F002B32D09942F9D110BDCA
:102910008A4211D09A071846CCD0184613F8012BDA
:10292000002AF5D1104670479907184607D0184677
:1029300001330278002AF7D170478207F7D1026885
:10294000A2F1013323EA020313F0803F08D150F8CB
:10295000042FA2F1013323EA020313F0803FF6D0E3
:102960000378002BE8D010F8013F002BFBD1704713
:10297000184610BD704700BF704700BF81F000418E
:1029800002E000BF83F0004330B54FEA41044FEA54
:10299000430594EA050F08BF90EA020F1FBF54EAEF
:1029A000000C55EA020C7FEA645C7FEA655C00F08B
:1029B000E2804FEA5454D4EB5555B8BF6D420CDD5C
:1029C0002C4480EA020281EA030382EA000083EADF
:1029D000010180EA020281EA0303362D88BF30BD7F
:1029E00011F0004F4FEA01314FF4801C4CEA1131D5
:1029F00002D0404261EB410113F0004F4FEA033334
:102A00004CEA133302D0524263EB430394EA050FBE
:102A100000F0A780A4F10104D5F1200E0DDB02FA2D
:102A20000EFC22FA05F2801841F1000103FA0EF2C1
:102A3000801843FA05F359410EE0A5F120050EF187
:102A4000200E012A03FA0EFC28BF4CF0020C43FAB8
:102A500005F3C01851EBE37101F0004507D54FF0C5
:102A6000000EDCF1000C7EEB00006EEB0101B1F515
:102A7000801F1BD3B1F5001F0CD349085FEA30005B
:102A80004FEA3C0C04F101044FEA445212F5800F66
:102A900080F09A80BCF1004F08BF5FEA500C50F103
:102AA000000041EB045141EA050130BD5FEA4C0CE6
:102AB000404141EB0101013C28BFB1F5801FE9D243
:102AC00091F0000F04BF01460020B1FA81F308BF66
:102AD0002033A3F10B03B3F120020CDA0C3208DD32
:102AE00002F1140CC2F10C0201FA0CF021FA02F10D
:102AF0000CE002F11402D8BFC2F1200C01FA02F17D
:102B000020FA0CFCDCBF41EA0C019040E41AA2BFA1
:102B100001EB0451294330BD6FEA04041F3C1CDA69
:102B20000C340EDC04F11404C4F1200220FA04F089
:102B300001FA02F340EA030021FA04F345EA030133
:102B400030BDC4F10C04C4F1200220FA02F001FAF5
:102B500004F340EA0300294630BD21FA04F0294677
:102B600030BD94F0000F83F4801306BF81F4801110
:102B70000134013D4EE77FEA645C18BF7FEA655C83
:102B800029D094EA050F08BF90EA020F05D054EA55
:102B9000000C04BF1946104630BD91EA030F1EBF5A
:102BA0000021002030BD5FEA545C05D1400049415E
:102BB00028BF41F0004130BD14F580043CBF01F551
:102BC000801130BD01F0004545F0FE4141F4700137
:102BD0004FF0000030BD7FEA645C1ABF1946104612
:102BE0007FEA655C1CBF0B46024650EA013406BF13
:102BF00052EA033591EA030F41F4002130BD00BFD2
:102C000090F0000F04BF0021704730B54FF480648E
:102C100004F132044FF000054FF0000150E700BF0F
:102C200090F0000F04BF0021704730B54FF480646E
:102C300004F1320410F0004548BF40424FF000015B
:102C40003EE700BF42004FEAE2014FEA31014FEA9E
:102C500002701FBF12F07F4393F07F4F81F06051ED
:102C6000704732F07F4208BF704793F07F4F04BF38
:102C700041F40021704730B54FF4607401F0004515
:102C800021F000411CE700BF50EA010208BF704775
:102C900030B54FF000050AE050EA010208BF704766
:102CA00030B511F0004502D5404261EB41014FF4CF
:102CB000806404F132045FEA915C3FF4D8AE4FF0D7
:102CC00003025FEADC0C18BF03325FEADC0C18BFBA
:102CD000033202EBDC02C2F1200300FA03FC20FA0B
:102CE00002F001FA03FE40EA0E0021FA02F1144458
:102CF000BDE600BF70B54FF0FF0C4CF4E06C1CEA71
:102D000011541DBF1CEA135594EA0C0F95EA0C0FE1
:102D100000F0DEF82C4481EA030621EA4C5123EA54
:102D20004C5350EA013518BF52EA033541F4801183
:102D300043F4801338D0A0FB02CE4FF00005E1FB36
:102D400002E506F00042E0FB03E54FF00006E1FB80
:102D500003569CF0000F18BF4EF0010EA4F1FF04C3
:102D6000B6F5007F64F5407404D25FEA4E0E6D4103
:102D700046EB060642EAC62141EA55514FEAC52014
:102D800040EA5E504FEACE2EB4F1FD0C88BFBCF590
:102D9000E06F1ED8BEF1004F08BF5FEA500E50F141
:102DA000000041EB045170BD06F0004646EA010107
:102DB00040EA020081EA0301B4EB5C04C2BFD4EB39
:102DC0000C0541EA045170BD41F480114FF0000E32
:102DD000013C00F3AB8014F1360FDEBF002001F0A0
:102DE000004170BDC4F10004203C35DA0C341BDC1A
:102DF00004F11404C4F1200500FA05F320FA04F0EC
:102E000001FA05F240EA020001F0004221F000411F
:102E100010EBD37021FA04F642EB06015EEA430E92
:102E200008BF20EAD37070BDC4F10C04C4F12005C2
:102E300000FA04F320FA05F001FA04F240EA020075
:102E400001F0004110EBD37041F100015EEA430E46
:102E500008BF20EAD37070BDC4F1200500FA05F266
:102E60004EEA020E20FA04F301FA05F243EA0203E5
:102E700021FA04F001F0004121FA04F220EA0200F4
:102E800000EBD3705EEA430E08BF20EAD37070BD3A
:102E900094F0000F0FD101F00046400041EB01011A
:102EA00011F4801F08BF013CF7D041EA060195F0FC
:102EB000000F18BF704703F00046520043EB0303B6
:102EC00013F4801F08BF013DF7D043EA06037047A3
:102ED00094EA0C0F0CEA135518BF95EA0C0F0CD0AE
:102EE00050EA410618BF52EA4306D1D181EA0301F4
:102EF00001F000414FF0000070BD50EA410606BFEE
:102F00001046194652EA430619D094EA0C0F02D132
:102F100050EA013613D195EA0C0F05D152EA033677
:102F20001CBF104619460AD181EA030101F0004195
:102F300041F0FE4141F470014FF0000070BD41F0DE
:102F4000FE4141F4780170BD70B54FF0FF0C4CF4B8
:102F5000E06C1CEA11541DBF1CEA135594EA0C0FD7
:102F600095EA0C0F00F0A7F8A4EB050481EA030E24
:102F700052EA03354FEA013100F088804FEA03330B
:102F80004FF0805545EA131343EA12634FEA0222D9
:102F900045EA111545EA10654FEA00260EF000419A
:102FA0009D4208BF964244F1FD0404F5407402D2EC
:102FB0005B084FEA3202B61A65EB03055B084FEA7D
:102FC00032024FF480104FF4002CB6EB020E75EB7A
:102FD000030E22BFB61A754640EA0C005B084FEAA2
:102FE0003202B6EB020E75EB030E22BFB61A75461F
:102FF00040EA5C005B084FEA3202B6EB020E75EB6A
:10300000030E22BFB61A754640EA9C005B084FEAE1
:103010003202B6EB020E75EB030E22BFB61A7546EE
:1030200040EADC0055EA060E18D04FEA051545EADD
:1030300016754FEA06164FEAC30343EA52734FEA86
:10304000C2025FEA1C1CC0D111F4801F0BD141EAFF
:1030500000014FF000004FF0004CB6E711F4801F64
:1030600004BF01430020B4F1FD0C88BFBCF5E06F44
:103070003FF6AFAEB5EB030C04BFB6EB020C5FEA54
:10308000500C50F1000041EB045170BD0EF0004EA9
:103090004EEA113114EB5C04C2BFD4EB0C0541EADB
:1030A000045170BD41F480114FF0000E013C90E6D8
:1030B00045EA060E8DE60CEA135594EA0C0F08BF9C
:1030C00095EA0C0F3FF43BAF94EA0C0F0AD150EA9B
:1030D00001347FF434AF95EA0C0F7FF425AF10462E
:1030E00019462CE795EA0C0F06D152EA03353FF456
:1030F000FDAE1046194622E750EA410618BF52EAD3
:1031000043067FF4C5AE50EA41047FF40DAF52EAA6
:1031100043057FF4EBAE12E74FF0FF3C06E000BF43
:103120004FF0010C02E000BF4FF0010C4DF804CD50
:103130004FEA410C7FEA6C5C4FEA430C18BF7FEA10
:103140006C5C1BD001B050EA410C0CBF52EA430C3E
:1031500091EA030F02BF90EA020F0020704710F1BE
:10316000000F91EA030F58BF994208BF90422CBF4D
:10317000D8176FEAE37040F0010070474FEA410C46
:103180007FEA6C5C02D150EA013C07D14FEA430C64
:103190007FEA6C5CD6D152EA033CD3D05DF8040BD5
:1031A000704700BF8446104662468C461946634607
:1031B00000E000BF01B5FFF7B7FF002848BF10F1DE
:1031C000000F01BD4DF808EDFFF7F4FF0CBF012023
:1031D00000205DF808FB00BF4DF808EDFFF7EAFF9F
:1031E00034BF012000205DF808FB00BF4DF808ED5A
:1031F000FFF7E0FF94BF012000205DF808FB00BF4F
:103200004DF808EDFFF7CEFF94BF012000205DF8D8
:1032100008FB00BF4DF808EDFFF7C4FF34BF0120E5
:1032200000205DF808FB00BF4FEA410C7FEA6C5CB0
:1032300002D150EA013C0AD14FEA430C7FEA6C5CB0
:1032400002D152EA033C02D14FF0000070474FF028
:10325000010070474FEA4102B2F1E04324BFB3F5E9
:10326000001CDCF1FE5C0DD901F0004C4FEAC002FD
:103270004CEA5070B2F1004F40EB830008BF20F0E1
:103280000100704711F0804F21D113F13872BCBF9B
:1032900001F00040704741F480114FEA5252C2F1F0
:1032A0001802C2F1200C10FA0CF320FA02F018BF39
:1032B00040F001004FEAC1234FEAD32303FA0CFC8C
:1032C00040EA0C0023FA02F34FEA4303CCE77FEA1B
:1032D000625307D150EA01331EBF4FF0FE4040F465
:1032E0004000704701F0004040F0FE4040F4000014
:1032F000704700BF7BB972B90029BEBF00204FF0F4
:10330000004106E008BF00281CBF6FF000414FF0ED
:10331000FF3000F0F5B9ADF1080C6DE904CE0029DD
:1033200009DB002B1ADB00F083F8DDF804E0DDE9AF
:10333000022304B07047404261EB4101002B1BDBCC
:1033400000F076F8DDF804E0DDE9022304B0404245
:1033500061EB4101524263EB43037047524263EB1E
:10336000430300F065F8DDF804E0DDE9022304B072
:10337000404261EB41017047524263EB430300F06E
:1033800057F8DDF804E0DDE9022304B0524263EBB4
:103390004303704753B94AB9002908BF00281CBF2E
:1033A0004FF0FF314FF0FF3000F0AAB9ADF1080C3B
:1033B0006DE904CE00F03CF8DDF804E0DDE902231D
:1033C00004B0704738B50022002304460D46FFF7CD
:1033D00003FF28B920462946BDE8384000F00AB866
:1033E000204605F1004100F005F8404261EB410143
:1033F00038BD00BFD0B50C4B002206460F46FFF784
:1034000079FC00F07FF90446FFF7FAFB074B002236
:10341000FFF770FC02460B4630463946FFF7B2FA1A
:1034200000F070F92146D0BD0000F03D0000F041F1
:103430002DE9F047089D04468E46002B4DD18A4267
:10344000944669D9B2FA82F252B101FA02F3C2F19A
:10345000200120FA01F10CFA02FC41EA030E94402B
:103460004FEA1C48210CBEFBF8F61FFA8CF708FB4C
:1034700016E341EA034306FB07F199420AD91CEB24
:10348000030306F1FF3080F01F81994240F21C8156
:10349000023E63445B1AA4B2B3FBF8F008FB10339E
:1034A00044EA034400FB07F7A7420AD91CEB0404D3
:1034B00000F1FF3380F00A81A74240F207816444A3
:1034C000023840EA0640E41B00261DB1D440002328
:1034D000C5E900433146BDE8F0878B4209D9002D8C
:1034E00000F0EF800026C5E9000130463146BDE816
:1034F000F087B3FA83F6002E4AD18B4202D3824280
:1035000000F2F980841A61EB030301209E46002D2E
:10351000E0D0C5E9004EDDE702B9FFDEB2FA82F283
:10352000002A40F09280A1EB0C014FEA1C471FFAE1
:103530008CFE0126200CB1FBF7F307FB131140EAC8
:1035400001410EFB03F0884208D91CEB010103F195
:10355000FF3802D2884200F2CB804346091AA4B257
:10356000B1FBF7F007FB101144EA01440EFB00FE2B
:10357000A64508D91CEB040400F1FF3102D2A64590
:1035800000F2BB800846A4EB0E0440EA03409CE72F
:10359000C6F12007B34022FA07FC4CEA030C20FADC
:1035A00007F401FA06F31C43F9404FEA1C4900FAFC
:1035B00006F3B1FBF9F8200C1FFA8CFE09FB181179
:1035C00040EA014108FB0EF0884202FA06F20BD9EC
:1035D0001CEB010108F1FF3A80F08880884240F23C
:1035E0008580A8F102086144091AA4B2B1FBF9F080
:1035F00009FB101144EA014100FB0EFE8E4508D97B
:103600001CEB010100F1FF346CD28E456AD90238FF
:10361000614440EA0840A0FB0294A1EB0E01A142E4
:10362000C846A64656D353D05DB1B3EB080261EB52
:103630000E0101FA07F722FA06F3F1401F43C5E92C
:10364000007100263146BDE8F087C2F12003D84062
:103650000CFA02FC21FA03F3914001434FEA1C47A4
:103660001FFA8CFEB3FBF7F007FB10360B0C43EA96
:10367000064300FB0EF69E4204FA02F408D91CEB46
:10368000030300F1FF382FD29E422DD90238634444
:103690009B1B89B2B3FBF7F607FB163341EA0341E4
:1036A00006FB0EF38B4208D91CEB010106F1FF3833
:1036B00016D28B4214D9023E6144C91A46EA00462A
:1036C00038E72E46284605E70646E3E61846F8E6BC
:1036D0004B45A9D2B9EB020864EB0C0E0138A3E705
:1036E0004646EAE7204694E74046D1E7D0467BE7E6
:1036F000023B614432E7304609E76444023842E75E
:10370000704700BF4A0011D212F5001211D20DD538
:103710006FF47873B3EB62520ED44FEAC12343F0D7
:10372000004343EA505323FA02F070474FF0000081
:10373000704750EA013002D14FF0FF3070474FF030
:1037400000007047024B58221A604FF0FF3070475C
:1037500054010020024B58221A604FF0FF3070478E
:1037600054010020044A05491368002B08BF0B468A
:103770001844106018467047580100204874002013
:10378000FEE700BF4EF60C50BFF34F8FCEF20000A5
:103790000168042201F4E061C0F2FA5211430160B1
:1037A000BFF34F8F00BFFDE7F0B503AF4DF804BD89
:1037B00086B0044606F077FA48F6F970C0F60100C4
:1037C000059006F077FA102808D148F6F970C0F68F
:1037D000010001A9102206F081FA0CE00020CDE9D9
:1037E0000100CDE9030048F6F970C0F6010001A917
:1037F000102206F099FA04F0CEF9064604F0BFF95B
:10380000054604F0C2F9F243019E4FEA324340F20A
:103810005C11C2F200019E4201AB0B601AD1EB4376
:10382000029E4FEA33439E4214D1C043039E4FEAA7
:103830003045AE420ED183EA3242049B82EA3040E8
:10384000834207D1002220460A6006B05DF804BB1F
:10385000F0BD00BF49F21A00C0F6010000F01CF8EC
:1038600040F6B83014F0D8F8F4E712F033BF13F094
:103870002BB800004EF60C50BFF34F8FCEF2000075
:103880000168042201F4E061C0F2FA5211430160C0
:10389000BFF34F8F00BFFDE783B0D0B502AF81B05B
:1038A000844607F108000EC040F29470C2F2000096
:1038B000041D07F1080320464FF48071624600930F
:1038C00002F04CFF2046FEF7BBFD0146204606F005
:1038D00073FC002001B0BDE8D04003B07047F0B5E4
:1038E00003AF2DE9000B82B0804606F099FC43F649
:1038F000DB10C0F6000002F0C8F900F051FD49F2FB
:10390000263143F6E912C0F60101C0F60002002399
:10391000002400F06FFB40F26019C2F2000909F1C7
:10392000080549F25F0143F63922C0F60101C0F6ED
:103930000002284600230094019401F068FC284608
:1039400001F07CFC09F1280549F2650143F61142BA
:10395000C0F60101C0F6000228460023009401943D
:1039600001F055FC284601F069FC082012F0B2FE77
:10397000034643F6D540C0F6000043F6CD45C3E903
:1039800000040320C0F6000549F26A0109F10406AB
:103990000090C0F6010128464FF48072019613F0A2
:1039A0007FFD082012F096FE034643F6E540C0F680
:1039B0000000C3E90004042049F275010090C0F63C
:1039C000010128464FF44072CDF8049013F068FDD1
:1039D000404602B0BDE8000BF0BDD0B502AF0C46CA
:1039E00006F0EAFB2046D0BDD0B502AF82B0044657
:1039F00006F00AFCD0B1646806F015FA00EE100A71
:103A00009FED0C1AB8EE400A80EE010A10EE100A83
:103A1000FFF718F9024649F28100C0F601000B4693
:103A2000009401F0A1FB002002B0D0BD072002B03D
:103A3000D0BD00BF00247449B0B502AF8EB00229DA
:103A400040F08580506849F28A01C0F601011446B1
:103A5000FEF72AFB002849D0606849F28F01C0F6C2
:103A60000101FEF721FB002858D0606849F295015A
:103A7000C0F60101FEF718FB002849D0606849F242
:103A80009A01C0F60101FEF70FFB002840D06068E4
:103A900049F2A301C0F60101FEF706FB002800F081
:103AA000A780606849F2AA01C0F60101FEF7FCFA9E
:103AB00000284FD0606849F2D401C0F60101FEF73A
:103AC000F3FA002800F09A80606849F2DC01C0F641
:103AD0000101FEF7E9FAD0BB49F2E500C0F60100AA
:103AE000FFF7DAFE00200EB0B0BD00BF04F0C2FD4B
:103AF00001A804F065FD0598AA2828D002200190AD
:103B0000AA2005900020C1F6FF700B9012E000BFC4
:103B100004F0C2FD00200EB0B0BD00BF04F0B3FD44
:103B200001A804F04DFD0598BB2810D0022001909B
:103B3000BB20059004F040FA04F061FA01A804F0FB
:103B4000B5FB04F081FA04F071FA04F04CFA00209D
:103B50000EB0B0BD49F2AD00C0F60100FFF79CFE0B
:103B600040F6C41013F058FF02F07CF80120012544
:103B700006F048F90020002406F044F985F3108887
:103B80004EF21005CEF200052C606C60AC6004F0C3
:103B900033FE4FF0FF30C5F87001C5F87002C5F86C
:103BA0007401C5F87402C5F87801C5F87802C5F843
:103BB0007C01C5F87C02C5F88001C5F88002C5F813
:103BC0008401C5F88402C5F88801C5F88802C5F8E3
:103BD0008C01C5F88C02002084F31088C1F6FF70B8
:103BE000016881F308884068804700200EB0B0BDAE
:103BF000012080F31388FFF73DFE00BF06F0B9F8FF
:103C0000012080F31388FFF735FE0000000000005C
:103C1000F0B503AF4DF804BD82B006F002F94DF2E5
:103C20003B41C3F2B511A0FB011244F6D351C1F2DE
:103C30006201A0FB011344F207569909CCF22E262B
:103C4000A1FB06652E0C40F2A3256E434BF2C53551
:103C5000A1EBC616C9F2A215A6FB0564A1FB0516C9
:103C6000150EF10A4FF461625143C1EB931148F60E
:103C7000890200EE100ADFED140A5143B8EE400A43
:103C8000E40A4E0DFCF766FC10EE100AFEF7DAFFB0
:103C90009FED0B0B53EC102BFFF756F941EC100B7B
:103CA00049F21910C0F601002946224633468DED2F
:103CB000000BFFF7F1FD002002B05DF804BBF0BD82
:103CC0000000000000408F4000606A47D0E90021FA
:103CD0000846104780B56F4606F003FB0A2013F034
:103CE0009BFEF9E780B56F4603E000BF012013F0AB
:103CF00093FE06F089FA0028F8D002F00EFB06F0D9
:103D000089FA18B106F06AFA01F0D2FA06F07CFAE4
:103D10000028EED00A2013F07FFE06F07BFA002880
:103D2000F0D1F3E74EF60C50BFF34F8FCEF2000008
:103D30000168042201F4E061C0F2FA52114301600B
:103D4000BFF34F8F00BFFDE7F0B503AF4DF804BDE3
:103D500082B00446012012F06CFE6060204600F044
:103D6000E1FE40F2A810C2F20000002526460460E1
:103D7000082046F8085F12F0ADFC034643F6B15048
:103D8000C0F60000C3E900050320009043F6CD40D3
:103D900049F24411C0F60000C0F601014FF48072F0
:103DA000019613F07DFB204602B05DF804BBF0BD28
:103DB00080B56F4682B006F034F840F2A818C2F21F
:103DC000000800260DF10409019009E0686800214F
:103DD0000022002312F0A6FE4846012113F0D4FC75
:103DE000D8F800504FF0FF31686813F0D1F92C6813
:103DF00001E000BF2468AC42E8D014F8040C0028AD
:103E0000F8D034F8060C34F8081C013082B2914224
:103E100024F8060CEED854E9040124F8066C88470F
:103E2000E8E700004EF60C50BFF34F8FCEF20000D3
:103E30000168042201F4E061C0F2FA52114301600A
:103E4000BFF34F8F00BFFDE7B0B502AF04460820B7
:103E500012F040FC002108220546FDF783FF281DD3
:103E600000F060FE28462C60A565B0BDB0B502AF7D
:103E700004461C2012F02EFC00211C220546FDF7F2
:103E800071FF2846AC61B0BD80B56F4601F11402E8
:103E9000011D104600F048FE002080BDDDF800C086
:103EA00002290171036007D0012909D000291CBF34
:103EB00001207047029904E0C0E9022C00207047FD
:103EC00001998260C0F80CC00161002070470000B9
:103ED000F0B503AF2DE9000782B08A465AF8046FA7
:103EE00056454BD09846914604460AE07068D4E99E
:103EF00000214B46CDF8008000F0D8FB36685645CF
:103F00003CD056F8140C10B121688142F6D116F855
:103F1000101C022918D06068012921D00029EDD198
:103F200056E9033221689D18A942E7D356F8041CCC
:103F30001844FDF7CFFD0028E0D116F8100C022838
:103F4000D4D3DBD106E000BF56E903012268084460
:103F50008242D3D3616856E9033270681944C8E7D6
:103F600056F80C1C22680B1D9A42C7D3405856E9DC
:103F70000212401A9042B9D3C0E700BF002002B03D
:103F8000BDE80007F0BD00004EF60C50BFF34F8FA8
:103F9000CEF200000168042201F4E061C0F2FA529E
:103FA00011430160BFF34F8F00BFFDE74EF60C5089
:103FB000BFF34F8FCEF200000168042201F4E061EC
:103FC000C0F2FA5211430160BFF34F8F00BFFDE70B
:103FD0004EF60C50BFF34F8FCEF200000168042262
:103FE00001F4E061C0F2FA5211430160BFF34F8F58
:103FF00000BFFDE782B0F0B503AF2DE9000782B046
:1040000004460D4607F10800C7E9022301900CB1F0
:1040100075B9A1E0019A104650F8041F019052F8BA
:10402000080B019200F09FFE0446002D00F09480E2
:104030002878002800F0908048F6F86A49F24F1876
:104040006E1CC0F6010A4FF00009C0F6010804E03A
:1040500016F8010B002800F07F800AEB0001497878
:10406000024601F00301022908BF203A012908BFD6
:104070000246A2F1410117294FF0000000F26D80C5
:10408000DFE801F01A6B1E0C22306B6B6B6B3C4A45
:104090006B6B6B6B6B6B525A6B6B6B62019801466F
:1040A00051F8043F019150F8082B4146019000203F
:1040B000009400F059F8CBE7204600F0BFFEC7E7B8
:1040C000606812F007FB43E0019A104650F8041FA5
:1040D00002F10C030190106892680193234600F0EE
:1040E00098FFB5E70198011D01910168216500F174
:1040F0000801406801916065AAE700BF019A104677
:1041000050F8041F93680190106802F10C052246D4
:10411000019500F07EFF9BE70198011D0191016868
:10412000204600F02EFF93E70198011D01910168E0
:10413000204600F007FF8BE70198011D0191006800
:10414000214600F01EFF83E70198011D01910068E0
:10415000206184F800907BE7204602B0BDE80007AC
:10416000BDE8F04002B0704782B0F0B503AF4DF843
:10417000048D82B00D46BA60FB6028B10021044670
:1041800000F0D1FE2DB93CE0002000F0BAFE04465C
:10419000BDB3287807F10801019190B348F6F8669D
:1041A0000135C0F601064FF0040809E00198011D31
:1041B00001910068214600F0C5FE15F8010B00B31F
:1041C0003118497801F00302022A014608BF20395C
:1041D000012A08BF01465429E8D0442910D184F8A7
:1041E00000800198011D01910168E16000F1080162
:1041F00040680191206115F8010B0028E0D100E032
:104200000024204602B05DF8048BBDE8F04002B007
:104210007047000082B0F0B503AF2DE9000784B00D
:10422000C7E902238246806D0D4607F1080103911C
:1042300010B1287830B971E05046FFF705FE2878B4
:1042400000286BD048F6F8686E1CC0F601084FF0E5
:10425000000922E00398011D03910068FFF706FEA4
:10426000039905460B4653F8042F01F114000393FC
:104270000B68D1E903410390CDE9004128460121B3
:10428000CDF80890FFF70AFEDAF858002946FFF744
:10429000FBFD16F8010B002840D008EB000149781F
:1042A00001F00302022A014608BF2039012A08BF93
:1042B000014644291CD05229CCD04C2936D1039830
:1042C000011D03910068FFF7D1FD039905460B46D8
:1042D00053F8042F01F1100003930B68D1E9024158
:1042E0000094CDE9021028460021CDF80490C9E7DA
:1042F0000398011D03910068FFF7B8FD0399054677
:104300000B4653F8042F01F10C0003930B688968E6
:104310000390CDE9001928460221B1E7002004B03E
:10432000BDE80007BDE8F04002B070470120F6E7A5
:104330004EF60C50BFF34F8FCEF2000001680422FE
:1043400001F4E061C0F2FA5211430160BFF34F8FF4
:1043500000BFFDE7B0B502AF40F2AC1049F2521118
:10436000C2F20000C0F601013D2200F033FD012041
:1043700000210322012412F013FB40F24825C2F26F
:104380000005002100220023686012F0CBFB686862
:1043900000210022002312F0C5FB00202C70B0BDCC
:1043A00040F2AC10C2F2000070470000F0B503AF5D
:1043B0002DE9000F83B040F24825C2F20005924675
:1043C0002A78012A3CD1064668680C46D7F808B01E
:1043D0004FF0FF31994612F0DBFE40F20828C2F29E
:1043E000000888F83C4005F1080449F25912C0F66B
:1043F000010220463C213346CDF800B003F0B9F964
:1044000007F10C0340463C212246029302F0A6F934
:1044100040F2AC10C2F2000041463D225346CDF8B6
:10442000009000F043F96968044608460021002224
:10443000002312F077FB204603B0BDE8000FF0BD6B
:104440000724204603B0BDE8000FF0BD4EF60C5027
:10445000BFF34F8FCEF200000168042201F4E06147
:10446000C0F2FA5211430160BFF34F8F00BFFDE766
:10447000F0B503AF2DE900070446007804282DD8D5
:104480000E46DFE800F026032F353D00E068924637
:104490008068002B3ED00021002212F057FF012837
:1044A00040D1D4F80C80B14659F80C0FD8F804105C
:1044B000884209D8D8F85020002A63D0D8F8541080
:1044C0004846904700285DD0E0680021806812F0DF
:1044D00013FD0020BDE80007F0BD00BF0120BDE8CE
:1044E0000007F0BD012020730020BDE80007F0BDEB
:1044F000E068316900F0E6FA0020BDE80007F0BD91
:10450000D4E9032106F10C0090470020BDE8000724
:10451000F0BD00BFBAF1000F08D04FF0FF3112F02C
:1045200037FE08E00320BDE80007F0BD002112F0CF
:104530002FFE0128CDD1D4F80C80B14659F80C0FCC
:10454000D8F80410884207D8D8F8502082B1D8F89B
:1045500054104846904758B1E06800218068002216
:10456000002312F0DFFA0020BDE80007F0BD00BF15
:1045700098F8000080B108F10C0049460822FDF7C8
:10458000DBFA12E098F8000040B308F10C0049464D
:104590000822FDF7D1FA2AE0D8F81000D6E9032165
:1045A000FDF7CAFAF068C8F80C00D8F8581029B11D
:1045B00008F10C0052460023FFF78AFC464656F8E5
:1045C000485FB542C8D000BF281F4146524600236D
:1045D000FFF74EFF2D68B542F6D1BDE7D8F81000C1
:1045E000D6E90321FDF7A8FAF068C8F80C00D8F85E
:1045F000581029B108F10C0052460123FFF768FC5E
:10460000464656F8485FB5423FF45EAF281F414624
:1046100052460123FFF72CFF2D68B542F6D153E730
:10462000F0B503AF2DE900070546884608686968BC
:10463000884207D892462A6D99463AB1696D40463C
:10464000904718B10120BDE80007F0BD287808B3F5
:1046500005F10C0041460822FDF76EFAA96D29B15B
:1046600005F10C0052464B46FFF732FC2C4654F83D
:10467000486FA64209D000BF301F294652464B461C
:10468000FFF7F6FE3668A642F6D10020BDE8000727
:10469000F0BD00BF2869D8E90021FDF74DFAD8F830
:1046A0000000E860A96D0029DAD1DFE7F0B503AFBB
:1046B0004DF8048D82B09046BA68044680681D4665
:1046C0000E46CAB10021002212F040FE012833D16B
:1046D000694620462A460123CDE90086FFF7A0FF60
:1046E000A16804460846002112F006FC204602B0EC
:1046F0005DF8048BF0BD00BF25B14FF0FF3112F023
:1047000047FD04E0002112F043FD012814D1694661
:1047100020462A460023CDE90086FFF781FFA168E5
:104720000446084600210022002312F0FBF920462F
:1047300002B05DF8048BF0BD0324204602B05DF8A2
:10474000048BF0BDB0B502AF0446002000F0D9FBE9
:10475000054600F0A0FC2046294600F0F3FB284661
:10476000B0BD0000F0B503AF4DF804BD0546007BB9
:1047700080B1A868144680680E468AB100210022E4
:1047800012F0E4FD01280FD0032420465DF804BB9D
:10479000F0BD00BF012420465DF804BBF0BD00BFA2
:1047A0004FF0FF3112F0F4FC0020A9682873D1E922
:1047B00003213046FDF7C0F9A868002180683CB1AC
:1047C000002412F099FB20465DF804BBF0BD00BF49
:1047D00000220023002412F0A5F920465DF804BB56
:1047E000F0BD00004EF60C50BFF34F8FCEF200002C
:1047F0000168042201F4E061C0F2FA521143016041
:10480000BFF34F8F00BFFDE7B0B502AF40F28C2C75
:104810001F21C2F2000C00BFA1F11F000CEB01022E
:1048200002F81F0CA1F11E0002F81E0CA1F11D00E0
:1048300002F81D0CA1F11C0002F81C0CA1F11B00D8
:1048400002F81B0CA1F11A0002F81A0CA1F11900D0
:1048500002F8190CA1F1180002F8180CA1F11700C8
:1048600002F8170CA1F1160002F8160CA1F11500C0
:1048700002F8150CA1F1140002F8140CA1F11300B8
:1048800002F8130CA1F1120002F8120CA1F11100B0
:1048900002F8110CA1F1100002F8100CA1F10F00A8
:1048A00002F80F0CA1F10E0002F80E0CA1F10D00A0
:1048B00002F80D0CA1F10C0002F80C0CA1F10B0098
:1048C00002F80B0CA1F10A0002F80A0CA1F1090090
:1048D00002F8090CA1F1080002F8080CC81F02F840
:1048E000070C881F02F8060C481F02F8050C081F69
:1048F00002F8040CC81E02F8030C881E02F8020C11
:10490000481E0CF80110FF2901F1200102F8010CEA
:1049100082D16FF001018C220CEB010E9EF8023067
:104920009EF8030082EA5304DD0708BF5C0882EAB0
:104930005403E50708BF630882EA5304DD0708BF94
:104940005C0882EA5403E50708BF630882EA53045F
:10495000DD0708BF5C0882EA5403E50708BF630867
:1049600082EA5304DD0708BF5C0882EA5403E507C6
:1049700008BF63088EF8023082EA5003C40708BFFC
:10498000430882EA5300DC0708BF580882EA500354
:10499000C40708BF430882EA5300DC0708BF580871
:1049A00082EA5003C40708BF430882EA5300DC07C9
:1049B00008BF580882EA5003C40708BF430882EAC8
:1049C0005300DC0701F1020108BF5808FE298EF8E8
:1049D0000300A1D1B0BD0000B0B502AF48F2203154
:1049E00040F28C3E46F2581C0020CEF6B851C2F27E
:1049F000000EC4F6B25C00BF10F0020281EA900320
:104A000008BF830881EA5304DD0708BF5C0881EA18
:104A10005403E50708BF630881EA5304DD0708BFB4
:104A20005C0881EA5403E50708BF630881EA530480
:104A3000DD0708BF5C0881EA5405E30708BF650885
:104A4000002A62464EF8205004BF42F2C802C3F664
:104A50006E3282EAD002440748BF4A4081EA5204DB
:104A6000D50708BF540881EA5402E50708BF620869
:104A700081EA5204D50708BF540881EA5402E507C9
:104A80000EEB800308BF620881EA5204D50700F1EB
:104A9000020008BF5408B0F5807F5C60ACD1B0BDA7
:104AA0004EF60C50BFF34F8FCEF200000168042287
:104AB00001F4E061C0F2FA5211430160BFF34F8F7D
:104AC00000BFFDE7D0B502AF0446007A00281CBF46
:104AD0000520D0BD2068D4E9042302FB0030FDF797
:104AE0002BF8D4E90001E268431C0020934228BF60
:104AF00003468B42236002BF012020720020D0BDFC
:104B00004EF60C50BFF34F8FCEF200000168042226
:104B100001F4E061C0F2FA5211430160BFF34F8F1C
:104B200000BFFDE7006070470A68026008607047D8
:104B30004EF60C50BFF34F8FCEF2000001680422F6
:104B400001F4E061C0F2FA5211430160BFF34F8FEC
:104B500000BFFDE7B0B502AF046874B10D4600BFF9
:104B600061682846FDF7A0FA002807D04FF00C0036
:104B700048BF08202458002CF2D100242046B0BDA4
:104B8000F0B503AF4DF8048D0D460021C5E90211C3
:104B9000296180460068012200282A7000F0A88060
:104BA000064668687168FDF77FFA00284FF00C0030
:104BB00048BF082030580028F2D1686871682E611B
:104BC000FDF772FA0C21002848BF082175502A69A8
:104BD0004FF0000C002A85F800C000F08C80012105
:104BE0000DE000BF54F8086F9E4218BF04342060E7
:104BF0008360186115461269002A00F07C801078E5
:104C0000002878D113699868824209D008B10678E3
:104C100096B19068A84219D016462A463BE000BFDC
:104C2000D86808B106783EB1D668AE421ED01046AC
:104C300014462A4647E000BF0170117083F800C097
:104C40001A4615461269002AD9D154E0E8681E4672
:104C5000906000281CBF026116692E611069A8B11E
:104C600050F80C6F964218BF043810E0A8681E4632
:104C7000D06000281CBF026116692E611069D8B18E
:104C800050F8086F964218BF043016E040462E4692
:104C90000560EA601561D8683170866883F800C0E5
:104CA000002EDE6018BF33611E6906611C69002C8E
:104CB0007FF498AF44469AE740460560AA6098683A
:104CC0002C46C6681561217083F800C0002E9E60D6
:104CD00018BF33611E6906611E692EB156F80C5F5C
:104CE0009D4218BF043E00E046463060C36080E746
:104CF000C8F800502970D8F80010012201200A706D
:104D00005DF8048BF0BD00004EF60C50BFF34F8FE2
:104D1000CEF200000168042201F4E061C0F2FA5210
:104D200011430160BFF34F8F00BFFDE7D0B502AF65
:104D300001200021032211F033FE40F28C74C2F2F4
:104D40000004002100220023606011F0EBFE606887
:104D500000210022002311F0E5FEFFF73DFEFFF7E2
:104D600053FD0020D0BDF0B503AF4DF8048D0646CD
:104D70005C20884611F0AEFC00215C220446FCF762
:104D8000F1FF04F11405284631461922FDF706FC0F
:104D90000120207004F14800A563C4F80480FFF7E7
:104DA000C1FE04F14C00FFF7BDFE012000210322EB
:104DB00011F0F6FD002100220023A06011F0B2FEE8
:104DC000A06800210022002311F0ACFE20465DF80F
:104DD000048BF0BDF0B503AF4DF8048D90460E4640
:104DE00000215C220446FCF7BDFF04F114052846AF
:104DF00031461922FDF7D2FB0120207004F1480052
:104E0000A563C4F80480FFF78DFE04F14C00FFF7A2
:104E100089FE01200021032211F0C2FD00210022A1
:104E20000023A06011F07EFEA06800210022002374
:104E300011F078FE20465DF8048BF0BDF0B503AFAD
:104E40004DF804BD40F28C74C2F20004054660685F
:104E50004FF0FF3105F1140612F09AF92046314661
:104E6000FFF778FE6168064608460021002200230D
:104E700011F058FE26B1012420465DF804BBF0BDB8
:104E800060684FF0FF3112F083F905F134012046DC
:104E9000FFF776FE6068002100220023002411F055
:104EA00041FE20465DF804BBF0BD0000F0B503AF45
:104EB0004DF8048D40F28C760C468046C2F2000616
:104EC00070684FF0FF3112F063F930464146FFF74A
:104ED00041FE71680546084600210022002311F0BA
:104EE00021FE4DB924B1012012F096FD013CE7D11D
:104EF00000205DF8048BF0BDA5F134005DF8048B53
:104F0000F0BDB0B502AF0446142011F0E3FB002160
:104F100014220546FCF726FF002C1EBF0120287036
:104F2000EC602846B0BDB0B502AF0D46002114229A
:104F30000446FCF717FF002D1EBF01202070E5601E
:104F40002046B0BDF0B503AF4DF804BD40F28C76FD
:104F5000C2F20006054670680C468D604FF0FF31C6
:104F600012F016F9201D05F14801FFF7DDFD70680C
:104F700000210022002311F0D5FD00205DF804BBC4
:104F8000F0BDF0B503AF2DE9000B054614208846AF
:104F900011F0A0FB002114220646FCF7E3FE40F2CC
:104FA0008C79B8F1000F1EBF01203070C6F80C805C
:104FB000C2F20009D9F804004FF0FF31B56012F0D9
:104FC000E7F8301D05F14801FFF7AEFDD9F8040000
:104FD00000210022002311F0A5FD0C2011F07AFB26
:104FE00046600446D9F804004FF0FF31A56012F086
:104FF000CFF808F14C012046FFF796FDD9F80400E0
:1050000000210022002311F08DFD0020BDE8000BDF
:10501000F0BDF0B503AF2DE9000B16460C4600219C
:10502000142298460546FCF79DFE40F28C79B8F1B3
:10503000000F1EBF01202870C5F80C80C2F20009C5
:10504000D9F804004FF0FF31AE6012F0A1F8281D2E
:1050500006F14801FFF768FDD9F80400002100229D
:10506000002311F05FFD6560D9F804004FF0FF31B7
:10507000A66012F08DF808F14C012046FFF754FDB0
:10508000D9F8040000210022002311F04BFD00207C
:10509000BDE8000BF0BD0146022008700022002090
:1050A0000A7370474EF60C50BFF34F8FCEF20000DC
:1050B0000168042201F4E061C0F2FA521143016078
:1050C000BFF34F8F00BFFDE7D0B502AFFFF72EFE55
:1050D0000446FFF73FF92044C0B2D0BD4EF60C5055
:1050E000BFF34F8FCEF200000168042201F4E061AB
:1050F000C0F2FA5211430160BFF34F8F00BFFDE7CA
:105100004EF60C50BFF34F8FCEF200000168042220
:1051100001F4E061C0F2FA5211430160BFF34F8F16
:1051200000BFFDE783B0B0B502AF81B040F2947527
:10513000C2F20005844607F108002C1D0EC007F1DD
:10514000080320464FF480716246009301F006FB8D
:105150002D682046FDF774F901462046A84701B0A6
:10516000BDE8B04003B0704783B0F0B503AF4DF871
:1051700004BD83B040F29475C2F20005844607F185
:1051800008002C1D0EC007F1080320464FF4807163
:105190006246029301F0E2FA2A6849F24730C0F60B
:1051A0000100062190472E682046FDF749F9014687
:1051B0002046B047D5F8F40405F57A71884212BF4D
:1051C000046849F28614C0F6010449F2621049F2FB
:1051D000741149F27A1249F27F13C0F60100C0F649
:1051E0000101C0F60102C0F601030094FFF79AFF27
:1051F00049F2870005F58271C0F60100FFF792FFC2
:1052000003B05DF804BBBDE8F04003B07047D0B513
:1052100002AFD7E902EC002404770160C0E9023E46
:1052200080F810C04261D0BDB0B502AF0C46054653
:1052300018300831FFF778FC6C60B0BDB0B502AF34
:1052400040F29475C2F200050446183005F55C7111
:10525000FFF76AFC05F55A706060B0BD80B56F4617
:1052600082B040F29471C2F20001D1F8F40401F569
:105270007A71884212BFD0F800C049F2861CC0F68D
:10528000010C49F2621049F2741149F27A1249F2A2
:105290007F13C0F60100C0F60101C0F60102C0F69E
:1052A0000103CDF800C0FFF73DFF02B080BD000054
:1052B000F0B503AF2DE9000F83B00D2802D00A2806
:1052C00040F09E8040F29476C2F20006D6F8E804E0
:1052D000D6F8EC1432680844C6F8E80449F2CB600A
:1052E000C0F6010003219047D6F8E80406F582785D
:1052F000002108F80010B6F842034CF6CD4400FB3C
:1053000004F1C90C01EB8101A0EB410189B206EB6C
:10531000411101304FF48072A6F8420301F5BE70CE
:105320004146A6F84023FDF729F8B6F8420300FBF2
:1053300004F1C90C01EB8101A0EB4100B6F8441364
:10534000A6F84203013188B20A28D6F8E80428BF3B
:105350000A21A6F84413E0B3411E721892F80431F2
:10536000202B37D102F58270C6F8E81400210170B5
:10537000D6F8E80468B3411E721892F80431202B65
:1053800028D102F58270C6F8E81400210170D6F821
:10539000E804F0B1411E721892F80431202B19D1A3
:1053A00002F58270C6F8E81400210170D6F8E8040E
:1053B00078B1411E721892F80431202B0AD102F5FF
:1053C0008270C6F8E81400210170D6F8E8040028BD
:1053D000C2D1002006F2071111F8032C202A2BD18C
:1053E00011F8022C202A2BD111F8012C202A2BD1C4
:1053F00011F8042B202AEFD0043940BB69E000BF2C
:1054000040F29479C2F2000999F8F014002900F0F2
:105410008F80022900F0AC80012940F05E8248F6BE
:10542000F861C0F601010844407810F0970018BFF9
:10543000012040004FE200BF033940B949E000BFFE
:10544000023920B945E000BF0139002841D006F5F6
:10545000927948462022C6F86491FDF79FF8002013
:105460000021002402E000BFCBB1013116FA81F225
:1054700092F82431202BF7D18BB2334493F82531A5
:1054800002F59272202B1070EFD00134E3B201329A
:1054900006EB8305062BC5F86421E6D106244846B1
:1054A00001F02AF8A8B1436933B1012151FA84F11E
:1054B00006F5B27298470CE049F28920C0F6010067
:1054C000FFF730FE326849F2CB60C0F601000321DD
:1054D0009047D6F8F40406F57A71884212BF056841
:1054E00049F28615C0F6010549F2621049F27411BD
:1054F00049F27A1249F27F13C0F60100C0F60101A9
:10550000C0F60102C0F601030095FFF70BFE002371
:10551000C6F8E834C6F8EC3440460021202286F86C
:10552000F03403B0BDE8000FBDE8F040FCF71ABC52
:105530001A283FDC032800F0C380092840F0BD8210
:1055400009F2071010F8031C202940F0CB8110F855
:10555000021C202940F0C88110F8011C202940F0CD
:10556000D98110F8041B2029ECD0011FD3E100BF22
:105570004138032800F2AE81DFE810F00400D800C3
:105580000C012201B9F94003B9F8442381B2B1F505
:10559000807F40F02F81002A00F09C81B9F84203FF
:1055A0004CF6CD410930CCF6CC41A0FB0112D1081C
:1055B00047E100BF1B2800F01B817F2840F07D825F
:1055C000D9F8E804002800F0888149F29E20C0F64E
:1055D0000100FFF7A7FDD9F8E80400210138C9F858
:1055E000E804484480F80411D9F8EC04002800F0DD
:1055F00074810020D9F8E8140144494491F8052148
:1056000081F80421D9F8EC14421C8A422BD2D9F833
:10561000E81409EB0102024492F8062101444944CE
:1056200081F80521D9F8EC14821C8A421BD2D9F8E2
:10563000E81442184A4492F807214944014481F889
:105640000621D9F8EC14C21C8A420CD2D9F8E8140D
:105650000144494491F80821043081F80721D9F820
:10566000EC148842C6D3D9F8E80409F582740844DA
:105670000021215449F2A22049F21A4149F21E4266
:10568000C0F60100C0F60101C0F60102FFF74AFDB5
:10569000D9F8E804D9F80020D9F8EC142044904750
:1056A00049F2870049F22241C0F60100C0F601012B
:1056B00003B0BDE8000FBDE8F040FFF733BD00BF09
:1056C000D9F8002049F2CB60C0F6010003219047D1
:1056D0000020C9F8E804C9F8EC04D9F8002089F8DA
:1056E000F00449F24730C0F6010006219047D9F88E
:1056F000F40409F57A71884212BF066849F28616E9
:10570000C0F6010649F2621049F2741149F27A12A8
:1057100049F27F13C0F60100C0F60101C0F6010294
:10572000C0F601030096FFF7FDFCD6E0B9F940038F
:1057300082B20A2A66D10020C9F8E804C9F8EC044C
:10574000D9F8002089F8F00449F24730C0F601008A
:1057500006219047D9F8F40409F57A71884212BFFE
:10576000066849F28616C0F6010649F2621049F24F
:10577000741149F27A1249F27F13C0F60100C0F6A3
:105780000101C0F60102C0F601030096FFF7CAFC52
:10579000A0E000BFD9F8EC04002800F09B80D9F805
:1057A000E81401380131C9F8E814C9F8EC0449F2E9
:1057B000870049F21241C0F60100C0F6010114E071
:1057C000D9F8E804002800F08580D9F8EC140138F5
:1057D000C9F8E804481CC9F8EC0449F2870049F20A
:1057E0001641C0F60100C0F60101FFF79BFC71E015
:1057F000012070E00A2A79D1B9F84213884269D0B1
:10580000093015E0B9F84433B9F842130A2B77D1BF
:105810004CF6CD420931CCF6CC42A1FB0223DA088A
:1058200002EB8202A1EB420181423FF484AF0130DE
:1058300046F26761C6F2666150FB01F18A1002EB25
:10584000D17101EB8101A0EB41040020C9F8E8040B
:10585000C9F8EC04D9F8002089F8F00449F247307F
:10586000C0F6010006219047D9F8F40409F57A71D1
:10587000884212BF066849F28616C0F6010649F250
:10588000621049F2741149F27A1249F27F13C0F69C
:105890000100C0F60101C0F60102C0F60103009646
:1058A000FFF740FCA0B209EB4010A9F8404300F517
:1058B000BE742046FCF7C4FD09F58275C9F8E804FA
:1058C00028462146FCF75AFDD9F80020D9F8E814FB
:1058D00028469047002089F8F00403B0BDE8000F87
:1058E000F0BD00BFC11E16E0811E14E000294FF07C
:1058F0000000F0D04C1EA1B2B1F5807FA5D1EAE73F
:10590000541CA2B2B2F5807F3FF415AF0139814239
:105910009BD110E7411E09F5927A5046FCF72EFD07
:1059200050462021FCF77EFE002818BF00F1010A36
:1059300050462F21FCF776FE90B1044614F8011F63
:1059400000291CBF00210170544509D0504600F0C9
:105950004FFD0028C1D083460125A24613E000BFB9
:10596000D9F8F4B409F55A709AF80020ABEB0001AD
:10597000B1FA81F1B2FA82F349095B09002A08BF42
:10598000834643EA010549F21701C0F6010150467A
:10599000FCF78AFB002800F08F8049F21801C0F65E
:1059A00001015046FCF780FB002800F0858050463E
:1059B0000295FCF745FD5BF8085F80465D454FF0BA
:1059C000000626D1D9F8705309F55C7BA5EB0B00D6
:1059D000B0FA80F00299400908432CD0B0B20028F8
:1059E0003FF47BAF012835D1D9F8F8140A6812F8D2
:1059F000080000285CD008EB02014C1EC0B200F089
:105A000071F8A07801340028F8D166E72D685D456B
:105A1000D8D02C4654F8181D50464246FCF77EFD5F
:105A20000028F3D10136B1B2204600F0FBFDEDE7CE
:105A30002D685D45D2D02C4654F8181D504642467C
:105A4000FCF76CFD0028F3D10136B1B2204600F01E
:105A5000E9FDEDE7D9F8002049F2CB60B9F8FC4444
:105A6000C0F6010003219047FFF7F8FB64B3D9F8B3
:105A70000020D9F8E81409F582709047B9F8FC04C1
:105A80001FFA88F188427FF628AF4FF0FF3010FAF6
:105A900088F4D9F8F804006820444078FFF708FC3F
:105AA000B9F8FC04A11C01348142F2D315E700BF10
:105AB000087F01287FF411AF2F2003B0BDE8000F4D
:105AC000BDE8F04000F00EB849F2870009F5827198
:105AD000C0F6010003B0BDE8000FBDE8F040FFF7DD
:105AE00021BB0000F0B503AF4DF804BD82B040F219
:105AF0009476C2F20006D6F8E824D6F8EC1407F83B
:105B0000110C0A441D2A00F2968000295BD0324411
