:020000040800F2
:1000000000800020518700089D8D0008ED8D0008BC
:100010003D8E00088D8E0008DD8E00080000000077
:10002000000000000000000000000000C180010886
:100030002B8F00080000000031830108278401088D
:10004000A1870008A1870008A1870008A1870008F0
:10005000A18700082D8F00082F8F0008A1870008B6
:10006000A1870008A1870008A18700083B8F00082E
:100070004D8F00085F8F0008718F0008838F000884
:10008000958F000800000000A1870008A1870008E4
:10009000A1870008A78F0008B98F0008CB8F000840
:1000A000D78F0008A1870008A1870008A187000852
:1000B000A1870008A1870008A1870008A187000880
:1000C000A1870008A1870008A187000811900008F7
:1000D000A18700082390000845900008A187000828
:1000E00067900008A1870008A1870008A187000881
:1000F000A1870008A1870008A18700080000000070
:1001000000000000A18700080000000075900008B2
:10011000A187000800000000A1870008A18700084F
:100120008790000899900008A1870008A18700081F
:10013000A18700080000000000000000A18700085F
:10014000A1870008A187000800000000000000004F
:10015000000000000000000000000000000000009F
:10016000000000000000000000000000A18700085F
:10017000A18700080000000000000000000000004F
:1001800000000000A187000800000000000000003F
:10019000000000000000000000000000000000005F
:1001A0000000000000000000A1870008A1870008EF
:1001B000A1870008A1870008A187000800000000AF
:1001C00000000000A18700080000000000000000FF
:0801D000A1870008A1870008C7
:100200000348044B834202D0034B03B118477047A5
:1002100030010020300100200000000005480649A0
:100220000B1AD90F01EBA301491002D0034B03B104
:100230001847704730010020300100200000000006
:1002400010B5064C237843B9FFF7DAFF044B13B11E
:100250000448AFF300800123237010BD300100205B
:10026000000000000C8A010808B5044B1BB10449CA
:100270000448AFF30080BDE80840CFE7000000006D
:10028000340100200C8A010810EE103A10EE902A7A
:1002900023F0004302F00042134300EE103A70478F
:1002A00010EE103A184A23F0004393421BDDB3F1DD
:1002B000FF4F02DB30EE400A704700B583B068465E
:1002C00000F056FB00F003000128DDED010A9DED72
:1002D000000A0CD0022812D070B1012001F03AF8C7
:1002E00003B05DF804FBDFED090A00F077BC01F014
:1002F00031F8B1EE400AF3E700F070FCF0E700F0EF
:100300006DFCB1EE400AEBE7D80F493F000000005A
:1003100010EE103A23F0004300EE103A704700BF91
:1003200008B52DED028BF0EE408AB0EE608A00F049
:1003300015F820B9B0EE480ABDEC028B08BDB0EE4E
:10034000480A00F00BF820B1F4EEC88AF1EE10FA7A
:10035000F0DDB0EE680ABDEC028B08BD10EE103A7D
:1003600033F000400ED0A0F50003B3F1FE4F0DD3E3
:10037000074B421E9A4207D9A0F1FF40B0FA80F025
:1003800040097047022070470320704704207047DF
:10039000FEFF7F0010EE103A114A23F00043934213
:1003A00018DDB3F1FF4F02DB30EE400A704700B5B5
:1003B00083B0684600F0DCFA400000F00200DDED9A
:1003C000010A9DED000AC0F1010001F00BF803B035
:1003D0005DF804FBDFED030A012001F003B800BF64
:1003E000DA0F493F0000000008B52DED028BB0EE9A
:1003F000408A00F081F8144B93F900300133F0EE9D
:10040000408A0FD0B4EE488AF1EE10FA0AD6B0EE68
:10041000480AFFF77DFFF7EE007AB4EEE70AF1EE47
:1004200010FA04DCB0EE680ABDEC028B08BD01F0E6
:10043000A7FABDEC028B034621221A600348BDE8EF
:10044000084001F0C9B900BF00000020B49F0108B6
:1004500000F058B908B52DED028BF0EE408AB0EEF1
:10046000608A00F0F5F90E4B93F9003001330BD0A0
:10047000F4EE488AF1EE10FA06D6DFED0A8AB4EE01
:10048000688AF1EE10FA02D0BDEC028B08BD01F0D3
:1004900077FA88EEA80ABDEC028B2123036008BD21
:1004A000000000200000000008B52DED028BB0EE2A
:1004B000408A00F08FFB0E4B93F9003001330BD0D4
:1004C000B4EE488AF1EE10FA06D6DFED0A8AB4EEF1
:1004D000E88AF1EE10FA02D4BDEC028B08BD01F0FF
:1004E0004FFA88EEA80ABDEC028B2123036008BDF9
:1004F000000000200000000038B510EE105A25F072
:100500000044B4F17E5F2DED048B00F085807ADC31
:10051000B4F17C5F0FDAB4F1485F80F29C80DFEDCC
:10052000697A70EE277AB7EE007AF4EEC77AF1EEC8
:1005300010FA00F38D80FFF7EBFEF7EE007A37EE4E
:10054000C00AB6EE008A20EE088A9FED5F7ADFEDE2
:100550005F6A9FED5F6A9FED5F5ADFED5F5ADFEDE7
:100560005F8AE8EE076A9FED5E7AA8EE067A9FED55
:100570005D6AA6EE885AA7EE086A9FED5B7ADFED0A
:100580005B6AE5EE085AA6EE087AE5EE886AE7EEC1
:10059000087AE6EE888AB0EE480AB0EE679A00F074
:1005A00019FB534B9C4268EE888A42DC10EE103AED
:1005B00023F47F6323F00F0306EE903AA6EEE68A5B
:1005C00070EE267A88EE895AC8EE274A9FED497A5E
:1005D000DFED497AB0EE006AA4EEC67A30EE000A8A
:1005E000F0EE675AE6EEC65A90EE057A37EE657A77
:1005F00037EEC77A002D0ADCBDEC048BB1EE477AEA
:10060000B0EE470A38BD70EE407A87EEA77ABDECAF
:10061000048BB0EE470A38BD9FED367ADFED377AAE
:1006200020EE077ABDEC048BA0EE277AB0EE470AE5
:1006300038BD88EE896A9FED327ADFED307AA0EE20
:10064000060AF0EE006AA0EE267A37EEC77AD1E706
:10065000B0EE407ADBE760EE007A9FED1B7ADFEDCB
:100660001B6A9FED1C6ADFED1A5A9FED1B5AE7EEDD
:10067000876ABDEC048BA6EEA76A9FED197ADFEDC1
:10068000196AA7EEA57AA6EE275AE7EE276ADFEDEC
:10069000175A9FED156A9FED117AE5EE275AA6EEDF
:1006A000A76AA5EEA77AF7EE006AE6EE276A67EE7C
:1006B000277AB0EE407A87EEA66AA0EE067AB0EE10
:1006C000470A38BDCAF2497108EF1138047F4F3A22
:1006D0002EC69D3D461124BDA80A4E3EABAA2A3E19
:1006E000613330BF2D57014039D119C090B0A6BE3B
:1006F0009999793F2EBD3BB3DB0F493FDB0FC93FD3
:100700002EBD3B3310B582B0CDED010A019B23F025
:100710000042B2F1FF4FF0EE407A30DC10EE100AEA
:1007200020F00041B1F1FF4F29DCB3F17E5F42D0F0
:100730009C1704F0020444EAD07431B37AB3B2F1E6
:10074000FF4F40D0B1F1FF4F29D08A1AB2F1F45FC8
:100750004FEAE25134DA002B42DA3C3140DA9FEDC5
:10076000340A012C4ED0022C43D064B19FED317A73
:10077000DFED317A30EE070A30EE670A03E09DEDD7
:10078000017A37EE270A02B010BD022C10D09FED7F
:100790002B0A032C18BFB0EE670A02B010BD9FED04
:1007A000280ADFED287A0028B8BFB0EE670AEAE72A
:1007B0009FED210AE7E702B0BDE8104000F0F2BE6D
:1007C0009FED1F0ACDE7B1F1FF4F04F1FF3420D0B8
:1007D000022C26D81C4B03EB840494ED030AD2E7C9
:1007E0009DED017A87EE870AFFF792FD00F0DAFEB1
:1007F000B7E79FED107ADFED107A30EE070A37EE9B
:10080000C00AC0E710EE103A03F1004300EE103AC0
:10081000B9E7022C08D80C4B03EB840494ED000AD2
:10082000B1E79FED030AAEE79FED080AABE700BF13
:10083000000000002EBDBB33DB0F4940DB0F49C079
:10084000DB0FC93FDB0FC9BF288A0108DB0F493F17
:1008500030B583B0CDED010A019D35F0004041D0A7
:1008600010EE10EA2EF00043B3F1FF4F3ADAB0F188
:10087000FF4F37DC83423BDB0EF000443AD01EF0E2
:10088000FF4F56D1190200296FF07D0204DD4900A7
:10089000002902F1FF32FADC15F0FF4F57D10102B7
:1008A0006FF07D0C03D449000CF1FF3CFBD512F135
:1008B0007E0F47DBCEF3160343F400031CF17E0FDB
:1008C0003ADBC5F3160040F40000B2EB0C0204D191
:1008D00017E00FD04B00013A13D0191A0029F8DAAB
:1008E0005B00F8E7DDED017A60EE277A87EEA70A74
:1008F00003B030BD1D4B03EB547393ED000A03B0FE
:1009000030BD181A58BF03461BB9F3E75B000CF162
:10091000FF3CB3F5000FF9DB1CF17E0F1CDBA3F5E8
:1009200000030CF17F0C234343EACC5300EE103A52
:10093000DEE7DA157F3AAFE76FF07D01A1EB0C013E
:100940008840C2E76FF07D01891A8B40B6E74FEA15
:10095000E05CACF17F0CAAE76FF07D02A2EB0C0C1F
:1009600043FA0CF3234300EE103AC1E7408A010832
:1009700070B510EE103A894A23F00044944286B0D4
:10098000054670DD864A944210EE106A22DC002B88
:10099000DFED847A844A24F00F04B0EE407A40F30D
:1009A000E480944270EE677A09BFDFED806A9FEDC4
:1009B000807A9FED807A77EEE67A012077EEC76A3B
:1009C00077EEE67AC5ED006A77EEC77AC5ED017A73
:1009D00006B070BD784A944254DDB4F1FF4F49DA55
:1009E000E215863AA4EBC25307EE903ABDEEE77AE1
:1009F000DFED726AB8EEC77A77EEC77A8DED037ACB
:100A000067EEA67ABDEEE77AB8EEC77A77EEC77AD8
:100A10008DED047A67EEA67AF5EE407AF1EE10FAE3
:100A2000CDED057A40F09080B5EE407AF1EE10FA07
:100A300014BF02230123624901910221009103A8FE
:100A4000294600F04DF9002EC2DA95ED007AD5ED79
:100A5000017AB1EE477AF1EE677A85ED007AC5ED5D
:100A6000017A4042B4E7002285ED000A426000208E
:100A700006B070BD70EE407A0020C5ED017AC5ED7C
:100A8000007AA5E7FFF744FC9FED4E7A9FED456A9B
:100A9000F6EE007AE0EE077A9FED457AFDEEE77A12
:100AA00017EE900AF8EEE76A1F28A6EEC60A66EE71
:100AB000877AB1EE666A1EDC434A411E24F0FF03CA
:100AC00052F82120934216D030EE677A85ED007AF5
:100AD00030EE470A002E30EE670A85ED010ABFF6B8
:100AE00077AFB1EE477AB1EE400A85ED007A85ED39
:100AF000010A40426CE730EE677AE21517EE103AD1
:100B0000C3F3C753C3EBD454082CDFDDDFED277AE2
:100B10009FED287AF0EE405AE6EE275A30EE650A4D
:100B2000A6EE270AF0EE407AD6EE877A35EEE77A1F
:100B300017EE103AC3F3C753D21A192A06DCB0EEE7
:100B4000650A85ED007AC3E7032374E79FED1F7AFA
:100B50009FED1F5AB0EE650AA6EE070A75EEC07A41
:100B6000E6EE077AD6EE857AAEE7944270EE277A03
:100B700009BFDFED0E6A9FED0E7A9FED0E7A77EEDC
:100B8000A67A4FF0FF3077EE876A77EEE67AC5ED0A
:100B9000006A77EE877AC5ED017A19E7D80F493FE9
:100BA000E3CB1640800FC93FD00FC93F0044353713
:100BB0004344353708A3852E800F49430000804306
:100BC000C88A010884F9223F488A010800A3852EBB
:100BD00032318D24B1EEC00A704700BF10EE103ADA
:100BE00023F00043B3F1485F2CDAFDEEC07A17EE34
:100BF000903A002B60D020EE007ADFED317A9FED45
:100C0000315ADFED315A9FED316ADFED316AA7EEDF
:100C1000275ADFED307AE7EE055AA7EE256AE7EEB0
:100C2000067AE7EE276A67EE266A60EEC00AF6EEFD
:100C3000007AE7EE260AB7EE000AD7EE270A30EE72
:100C4000600A704720EE007ADFED1D7A9FED1D5A95
:100C5000DFED1D5A9FED1D6ADFED1D6A1E4AA7EEEE
:100C6000275A9342DFED1B7AE5EE075AA5EE876A15
:100C7000E6EE077AE7EE876A66EE876AD5DD174A01
:100C8000934214DC03F17F4307EE903AB7EE006A1B
:100C900036EE676A60EEC00AF6EE005AD7EE257AA5
:100CA000E7EE260A77EEE00A36EE600A7047B6EE07
:100CB000076AF5EE027AEDE7B7EE000A704700BF6B
:100CC0004ED747ADF6740F317CF293B4010DD03797
:100CD000ABAA2A3D610BB6BA9999993E0000483FEC
:100CE0002DE9F04F2DED048BDBB01C4603930691EC
:100CF000A24B6899089253F82150111D824604F1C5
:100D0000FF38C0F2A382D31E48BF131DDB1002932D
:100D10000133DB000793DDE907239B1A0593029B50
:100D200015EB0801A3EB080316D401319FED947A6B
:100D3000699819441EAA002BA4BF50F8234007EE5F
:100D4000904A03F10103ACBFF8EEE77AF0EE477A80
:100D50008B42E2EC017AEED1002DC0F2E782039BD8
:100D60001EAA02EB830446AE4FEA830C4046EF18FE
:100D70000AEB8301B8F1000FDFED817A09DB22462F
:100D80005346F3EC016A32ED017A8B42E6EE877A44
:100D9000F7D10130B842E6EC017A04F10404E9D15C
:100DA00009AB0AAF03EB850907EB8503083B9FED11
:100DB000769ADFED748A059804930AEB0C0446AE2C
:100DC00000955AAB03EB8503002D13ED140A4FEA8F
:100DD000850B16DD06EB85033A4660EE097AB0EE28
:100DE000407AFDEEE77A73ED016AF8EEE77AB342F6
:100DF000A7EEE87A37EEA60ABDEEC77AA2EC017A32
:100E0000EBD1019000F0EEFCB0EE408AB4EE000AA7
:100E100028EE000A00F09AFCF2EE007AA0EE678A53
:100E200001980028FDEEC89AF8EEE97A38EE678A54
:100E300079DD05F1FF3EC0F1080357F82E1041FAA5
:100E400003FC0CFA03F3CB1AC0F1070219EE901A57
:100E500043FA02F26144002A47F82E3009EE901A54
:100E600069DCB5EE408AF1EE10FA40F0C080009BDC
:100E700005F1FF3B5B4510DC05F18043013B07EBCF
:100E800083030021944653F804294B4541EA0201AB
:100E9000F9D16246002940F0F280009B013B57F8EF
:100EA0002330002B40F0E780049B4FF0010C53F8F7
:100EB00004290CF1010C002AF9D06B1CAC449E46AD
:100EC000039A5119029A02EB030B0BF1804B699ABA
:100ED0000BF1FF3B06EB83051EAB02EB8B0B03EB29
:100EE0008101DBED017A9FED267AF8EEE77AB8F121
:100EF000000F0BF1040BC1ED007A0A4601F1040169
:100F000009DB534601E072ED017AF3EC016AA3427A
:100F1000A6EEA77AF7D10EF1010EE645A5EC017A0F
:100F2000DFDD65464DE740F09C806B1E57F82320BF
:100F30001212002A95DD19EE903A002D03F10103FB
:100F400009EE903A40F39881396800297FD1012D4C
:100F500026D03B464FF0010C53F8041F00297AD0ED
:100F60000CF10103C1F580719D4247F82C1016DD8C
:100F700057F82310BB4407EB83030AE0E08D010818
:100F800000000000000080430000803B0000C93FDB
:100F90001968C1F1FF0143F8041B5B45F8D1012139
:100FA00000280CDD012800F04881022807D105F156
:100FB000FF3C57F82C3003F03F0347F82C30022A4F
:100FC0007FF44FAFB7EE000A30EE488A00293FF4B5
:100FD00048AF0992019000F005FC38EE408A099A6A
:100FE0000198B5EE408AF1EE10FA3FF440AF02925C
:100FF000DDE90732B0EE480A981A0195009D00F02D
:10100000F1FB1FED207AB4EEC70AF1EE10FADDE92C
:101010000132C0F259815FED247A059960EE277A9A
:101020000831FDEEE77A0591F8EEE77A03F1010B5E
:10103000A7EEC70AFDEEE77ABDEEC00A10EE101A61
:1010400047F8231017EE903A47F82B302EE0012393
:101050004FF0000C86E70CF1010CAC457FF47CAF3F
:101060009EE7F6EE007AB4EEE78AF1EE10FA80F22F
:10107000F2800022F5E66B1C9E469C4620E705990F
:10108000A1F1080057F82B1005902B46009D69B977
:1010900003F18043023B07EB8303014653F8040945
:1010A0000BF1FF3B08390028F8D005910598009214
:1010B000B7EE000A00F096FBBBF1000F009AC0F2F9
:1010C00028814FEA8B0E46AB03EB0E060EF1040CA3
:1010D0001FED537A07EB0C03311D73ED017AF8EE27
:1010E000E77ABB4267EE807A20EE070A61ED017A6B
:1010F000F3D1002D1FED5B6A4FF0000420DB934815
:10110000DFED937AB0EE467A3146002303E09C424D
:1011100008DBB0EC017AF1EC016A01339D42E6EEA6
:10112000877AF4DA5AAB03EB8403A34543ED287ABC
:10113000A6F1040604F1010305D0002D1C46DEDAF9
:10114000DFED837AEEE7689902291CDC002900F3C1
:1011500095800FD132ABDFED7E7A9C443CED017A75
:10116000634577EE877AF9D10AB1F1EE677A069B8B
:10117000C3ED007A19EE903A03F007005BB0BDECC6
:10118000048BBDE8F08F689B032BF3D1BBF1000FFC
:1011900000F0D4800EF5B4736B4432A913ED287AB5
:1011A00001EB8B0373ED017AF0EE476A37EE277A95
:1011B000994277EEC77A83ED007A77EEA67AC3ED8F
:1011C000017AEFD1BBF1010F40F3B8800BF1804BF6
:1011D0000EF5B4730BF1FF3B0DEB030E4FEA8B0BD7
:1011E0000BF104031EED287A0B4433A873ED017A4A
:1011F000F0EE476A37EE277A984277EEC77A83EDAA
:10120000007A77EEA67AC3ED017AEFD10BF1080BE5
:10121000DFED4F7A01EB0B03083133ED017A994290
:1012200077EE877AF9D1002A56D10699329A339B04
:101230000A604B60C1ED027A9CE705F1FF3C57F86C
:101240002C3003F07F0347F82C30B8E608230793CF
:10125000002302935FE519EE903A002D03F101039C
:1012600009EE903AC8BF02223FF76EAEF7EE007A61
:1012700037EEC88A0222F4E5002191E632A9DFEDBB
:10128000347A01EB830333ED017A994277EE877A62
:10129000F9D19DED327A8ABB069BBBF1000FC3EDFD
:1012A000007A77EE677A0BDD33A90123B1EC017A7E
:1012B00001339B4577EE877AF8DA0AB1F1EE677A67
:1012C000069BC3ED017A55E7BDEEC00A9B4610EEC2
:1012D000101A47F82310E9E6DDED326A9DED337A06
:1012E000069BF1EE666AB1EE477AF1EE677AC3EDDE
:1012F000006A83ED017AC3ED027A3BE7069BF1EECB
:10130000676ABBF1000F77EE677AC3ED006ACBDC4A
:10131000D4E7689B022B0DDC002B14DC7FF42AAF92
:10132000DFED0B7A002A3FF422AF1EE7039B4FEA62
:10133000830C35E5689B032B7FF41CAFDFED047A4B
:10134000002AC9D171E7DFED027AA2E7F08D01082A
:101350000000000010EE103A23F00043B3F1485FA4
:1013600004DAFDEEC07A17EE903A5BB360EE007AD5
:101370009FED157ADFED155A9FED156ADFED156AC1
:10138000E7EE875A9FED147AA5EEA76A20EE275A5A
:10139000E6EE276AA6EEA77A30B9DFED106AE7EE2F
:1013A000876AA6EE850A704727EE457AF6EE006A50
:1013B000A0EEA67ADFED0A6AD7EE270AE5EE260A46
:1013C00030EE600A704700BFD3C92E2F342FD7B23A
:1013D0001BEF3836010D50B98988083CABAA2ABEEC
:1013E000ABAA2A3E08B510EE103A23F00042B2F143
:1013F000465FF0EE407A0FDABDEEC07A17EE101AB3
:1014000001BB431C134300F0A080012803D0BFEEB2
:10141000007A87EE270A08BD50498A4212DB002B6A
:10142000B8BFF1EE407A9FED4E7A9FED4E0AB8BFFD
:10143000F1EE600A70EE677A37EE600ADFED4A0A75
:1014400070EE277A67EEA76ADFED484ADFED485A6B
:101450009FED485A9FED486A404926EEA67A8A4297
:10146000E7EE245AA7EE056ADFED444A9FED445AA1
:10147000E5EE874AA6EE075ADFED425A9FED426A33
:10148000E4EE875AA5EE076ADFED404A9FED405A29
:10149000E5EE874AA6EE075A9FED3E6ADFED3E5A1B
:1014A000A4EE876AE5EE075AB0EE467AA5EEA67A74
:1014B00027EEA65AB0EE606AA7EE056ADFED374A5E
:1014C000E6EE260AE5EE240A37EEA00A1FDA012826
:1014D000A1D0BFEE007AC7EE006A314B10EE102AA1
:1014E0001A4006EE102A16EE902A76EE677A13401E
:1014F00000EE103AB7EE007A70EEE70AF0EE477AA7
:10150000E6EE007AE0EE807AA7EEA60A08BD07EEC6
:10151000100AB8EEC77A60EE005A30EE070A9B1741
:10152000C5EE806A03F00203C3F10103B0EE006A66
:1015300076EEE00A00EE103A77EEE07AB8EEC00AF6
:10154000A7EEC67A20EE070A08BDFEF7E1FEB7EE69
:10155000007AF0EE407A87EE270A08BD40A12C3FC2
:1015600068212233DA0F493F000000005FAE9BB7CD
:1015700045F4A3388453D9377AC09538C8261A3A27
:10158000B937813916696B3B48DEBE3AA427B33CB4
:101590001F37113C8988083ED10D5D3DABAAAA3E9C
:1015A00000F0FFFF38B510EE105A25F00044B4F1FA
:1015B000A14FF0EE407A0BDBB4F1FF4F58DCDFEDCA
:1015C000517A9FED510A002DC8BFB0EE670A38BDB1
:1015D0004E4B9C425BDCB4F1445F4CDB4FF0FF327E
:1015E00067EEA76ADFED4A4ADFED4A5A9FED4A5A95
:1015F0009FED4A4A26EEA67AB0EE666AE7EE245AD6
:10160000531CDFED474ADFED476AA5EE875AE7EE48
:10161000246ADFED455ADFED454AE6EE875AA5EE2E
:10162000074A9FED435ADFED436AA5EE875AE4EE81
:10163000074ADFED415AE4EE876AE5EE075A66EEA7
:10164000866A25EE877A37D03C4B03EB820376EE31
:10165000876A93ED000A93ED047A96EEA70A002DAF
:1016600070EE677A37EE670AB1DAB1EE400A38BD3C
:1016700030EE000A38BD9FED327A30EE077AF7EE91
:10168000006AB4EEE67AF1EE10FAA7DD38BDFEF797
:101690003FFE2C4B9C4216DCA3F5D0039C4227DC7A
:1016A000F0EE007ABFEE007AA0EE277A002230EE4C
:1016B000270AC7EE007A93E776EE876AE6EEE77AC6
:1016C000B0EE670A38BD204B9C420BDCF7EE087A7F
:1016D000B7EE007AA0EE277A022230EE670AC0EE5B
:1016E000077A7DE7BFEE007AC7EE007A032277E73C
:1016F000F7EE007A30EE677A30EE270A0122C7EE65
:10170000007A6DE7DB0FC93FDB0FC9BFFFFFDF3E8C
:10171000D769853C59DA4B3D356B883D6E2EBA3D15
:1017200021A215BD6BF16EBD95879DBD2549123E69
:10173000388EE3BDABAAAA3ECDCC4CBE188E0108B4
:10174000CAF24971FFFF973FFFFF1B4010EE102ABE
:10175000C2F3C7537F3B162B22F0004128DC002B3D
:1017600018DB1A4919410A4221D0DFED197A70EECF
:10177000277AF5EEC07AF1EE10FA18DD002A04DAC5
:101780004FF4000040FA03F31A4422EA010300EE8A
:10179000103A7047DFED0E7A70EE277AF5EEC07AD8
:1017A000F1EE10FA03DD002A08DB9FED0A0A70470C
:1017B000B1F1FF4FFBD330EE000A7047FFEE007A25
:1017C000002918BFB0EE670A704700BFFFFF7F0017
:1017D000CAF24971000000009FED010A704700BF86
:1017E0000000C07F82B08DED010A019B33F0004202
:1017F0002AD0B2F1FF4F23D213F0FF4F28D19DED35
:10180000017ADFED2A7A2A4B67EE277A9842CDEDEE
:10181000017A37DB019BC3F3C752193A0244FE2A0F
:101820001ADD9FED240A9FED247A019B002BF0EE38
:10183000407AB8BFB0EE470A20EE270A02B07047E0
:1018400030EE000A02B070479DED010A02B0704709
:10185000D20D0244FE2AE4DC002A0BDC12F1160F42
:1018600017DA4CF250339842DBDC9FED140A9FEDFF
:10187000147ADAE723F0FF4343EAC25300EE103A4A
:1018800002B070479FED0D0ADDED017A27EE800A68
:10189000D8E7193223F0FF4343EAC253DFED097A58
:1018A00007EE103A27EE270ACCE700BF0000004CF5
:1018B000B03CFFFFCAF24971CAF249F16042A20D81
:1018C0006042A28D0000003308B5062000F0B0FA97
:1018D000012001F0D5FE00BF002200F003B800BFD8
:1018E00000F0AAB870B4840746D04C1E002941D03D
:1018F000D5B2034602E0611EE4B30C4603F8015B77
:101900009907F8D1032C2ED9D5B245EA05250F2C1D
:1019100045EA054519D9264603F11001103E0F2E60
:1019200041F8105C41F80C5C41F8085C41F8045C3B
:1019300001F11001F2D8A4F1100121F00F0104F01F
:101940000F041031032C0B440DD91E4621460439D7
:10195000032946F8045BFAD8211F21F00301043162
:101960000B4404F003042CB1D2B21C4403F8012B45
:10197000A342FBD170BC70470C460346C2E700008F
:10198000014B1868704700BF0400002070B50D4E71
:101990000D4D761BB61006D0002455F8043B0134DB
:1019A0009847A642F9D1094E094D761B17F02EF83B
:1019B000B61006D0002455F8043B01349847A642DF
:1019C000F9D170BDC09F0108C09F0108C89F0108E0
:1019D000C09F0108032A70B515D940EA010C1CF01C
:1019E000030F04460B4621D1194620460E680568B0
:1019F000B54204F1040403F1040317D1043A032AA5
:101A000020461946F0D8541EA2B100F1FF3C01391E
:101A100001E0C3180CD01CF801EF11F8012F964516
:101A2000A4EB0C03F5D0AEEB020070BD541EECE746
:101A3000184670BD104670BD844641EA000313F09D
:101A400003036DD1403A41D351F8043B40F8043BC5
:101A500051F8043B40F8043B51F8043B40F8043B88
:101A600051F8043B40F8043B51F8043B40F8043B78
:101A700051F8043B40F8043B51F8043B40F8043B68
:101A800051F8043B40F8043B51F8043B40F8043B58
:101A900051F8043B40F8043B51F8043B40F8043B48
:101AA00051F8043B40F8043B51F8043B40F8043B38
:101AB00051F8043B40F8043B51F8043B40F8043B28
:101AC00051F8043B40F8043B403ABDD2303211D3C8
:101AD00051F8043B40F8043B51F8043B40F8043B08
:101AE00051F8043B40F8043B51F8043B40F8043BF8
:101AF000103AEDD20C3205D351F8043B40F8043BC8
:101B0000043AF9D2043208D0D2071CBF11F8013BC5
:101B100000F8013B01D30B8803806046704700BF8B
:101B2000082A13D38B078DD010F003038AD0C3F19A
:101B30000403D21ADB071CBF11F8013B00F8013B7C
:101B400080D331F8023B20F8023B7BE7043AD9D33B
:101B5000013A11F8013B00F8013BF9D20B78037010
:101B60004B7843708B7883706046704788420DD9FC
:101B70008B1883420AD900EB020CBAB1624613F803
:101B800001CD02F801CD9942F9D170470F2A0ED844
:101B9000034602F1FF3C4AB10CF1010C013B8C44BD
:101BA00011F8012B03F8012F6145F9D1704740EA84
:101BB00001039B0750D1A2F1100370B501F1200C75
:101BC00023F00F0501F1100E00F11004AC441B09C5
:101BD0005EF8105C44F8105C5EF80C5C44F80C5C39
:101BE0005EF8085C44F8085C5EF8045C44F8045C49
:101BF0000EF1100EE64504F11004E9D1013312F0A4
:101C00000C0F01EB031102F00F0400EB031327D0BC
:101C1000043C24F003064FEA940C1E441C1F8E461D
:101C20005EF8045B44F8045FB442F9D10CF101049E
:101C300002F0030203EB840301EB840102F1FF3C99
:101C40004AB10CF1010C013B8C4411F8012B03F853
:101C5000012F6145F9D170BD02F1FF3C03469BE7BE
:101C60002246EBE7830730B548D0541E002A3FD008
:101C7000CAB2034601E0013C3AD303F8012B9D07A9
:101C8000F9D1032C2DD9CDB245EA05250F2C45EA13
:101C9000054536D9A4F1100222F00F0C03F1200EF5
:101CA000E6444FEA121C03F1100242E9045542E9EE
:101CB000025510327245F8D10CF1010214F00C0FEC
:101CC00003EB021204F00F0C13D0ACF1040323F069
:101CD00003030433134442F8045B9342FBD10CF03A
:101CE00003042CB1CAB21C4403F8012B9C42FBD163
:101CF00030BD64461346002CF4D1F9E70346144680
:101D0000BFE71A46A446E0E738B5446C0CB10020A2
:101D100038BD8021054600F0DBFC0246686430B126
:101D2000031F7C3243F8044F9342FBD1EFE74FF09F
:101D3000FF3038BD1F29F8B5054608D8466C0C465B
:101D400017464EB156F8240046F82470F8BD162305
:101D500003604FF0FF30F8BD802100F0B9FC06466B
:101D6000686440B1031F00F17C05002143F8041FA3
:101D70009D42FBD1E6E74FF0FF30F8BD1F2938B593
:101D8000054620D8426C0C466AB152F8213053B156
:101D9000012B16D0591C10D00025204642F82450A3
:101DA0009847284638BD284600F0F8F822460146F4
:101DB0002846BDE8384000F0DBB816230360012058
:101DC00038BD002038BD162303604FF0FF3038BD0A
:101DD0001F292AD8426C38B50C46054682B152F804
:101DE000243002EB84024BB1591C19D0012B15D0C1
:101DF0000025204615609847284638BD012038BD8B
:101E0000802100F065FC0246686458B1031F002180
:101E10007C3043F8041F9842FBD1E0E7032038BD33
:101E2000022038BD4FF0FF3038BD4FF0FF30704713
:101E300038B5144B1F281D681FD86A6C044662B160
:101E400052F820304BB1012B15D0591C0FD0002572
:101E500042F820509847284638BD284600F09EF8A2
:101E6000224601462846BDE8384000F081B81623D6
:101E70002B60012038BD002038BD16232B604FF0A9
:101E8000FF3038BD04000020124B1F2870B51E68BB
:101E900008D80D46716C044649B151F8240041F848
:101EA000245070BD162333604FF0FF3070BD802189
:101EB000304600F00DFC0146706440B1031F00F194
:101EC0007C0C002243F8042F6345FBD1E5E74FF07B
:101ED000FF3070BD0400002038B50B4B1D686C6CE2
:101EE0000CB1002038BD8021284600F0F1FB686469
:101EF00038B1031F00F17C0243F8044F9342FBD139
:101F0000EFE74FF0FF3038BD0400002038B5174B25
:101F10001F281D6826D86A6C044682B152F8243006
:101F200002EB84024BB1591C1AD0012B16D00025AC
:101F3000204615609847284638BD012038BD8021CD
:101F4000284600F0C5FB0246686458B1031F002113
:101F50007C3043F8041F8342FBD1DFE7032038BD08
:101F6000022038BD4FF0FF3038BD00BF0400002014
:101F700070B50C46084D03460026204611461C4607
:101F80002E6001F067FB431C00D070BD2B68002B56
:101F9000FBD0236070BD00BF5401002001F052BB94
:101FA000A2EB0300704700BF02780B78012A28BF1C
:101FB0009A42F5D16DE9044540EA0104CDE9026792
:101FC0006FF0000C4FEA447212B380EA010414F07F
:101FD000070F6AD100F0070420F0070004F00305A2
:101FE00021F007014FEAC505F0E8042314F0040FBF
:101FF000F1E804670CFA05F462EA040266EA0406F2
:102000000AD063EA0403624667EA0407664603E00F
:10201000F0E80423F1E8046782FA4CF582EA06044A
:10202000A4FA8CF46CBB83FA4CF583EA0705A5FA95
:102030008CF595B950E9022351E9026782FA4CF513
:1020400082EA0604A4FA8CF483FA4CF583EA0705C5
:10205000A5FA8CF52543DBD09CB92DBAB5FA85F4E9
:1020600024F0070427FA04F1DDE9026723FA04F3F8
:1020700003F0FF0001F0FF01FDE80445A0EB0100C3
:10208000704724BAB4FA84F424F0070426FA04F161
:10209000DDE9026722FA04F202F0FF0001F0FF011D
:1020A000FDE80445A0EB0100704714F0030F3CD19C
:1020B00010F0030428D150F8082B51F8083B82FA9D
:1020C0004CF582EA0305A5FA8CF55DB950F8042CAD
:1020D00051F8043C82FA4CF582EA0305A5FA8CF526
:1020E000002DE8D02DBAB5FA85F424F0070423FAC0
:1020F00004F122FA04F202F0FF0001F0FF01FDE812
:102100000445A0EB010070474FEAC40420F003002F
:1021100050F8082B21F0030151F8083B0CFA04F4A5
:1021200062EA040263EA0403C9E710F003041AD068
:10213000A1EB040120F00300E40750F8042B06D0C3
:102140000FD28B785FFAA2F4E41A06D12BB1CB78C8
:102150005FFAB2F4E41A00D11BB920465DF8104BC7
:10216000704701F1040150F8042BCC0721F0030162
:1021700051F8043B48D824D222F07F4482FA4CF52F
:1021800094EA1325A5FA8CF50AD165B951F8043BF8
:1021900084EA0204B4EB036F0ED150F8042BEBE792
:1021A0004FEA132355E035F07F454DD10878FDE81F
:1021B0000445C0F1000070474FEA126203F0FF03CC
:1021C00047E002EA1C4482FA4CF594EA1345A5FA6A
:1021D0008CF50AD165B951F8043B84EA0204B4EBEA
:1021E000034F0CD150F8042BEBE74FEA134330E0D8
:1021F00015EA1C4528D10B884FEA124229E04FEA24
:10220000124203EA1C4324E002F0FF0482FA4CF578
:1022100094EA1365A5FA8CF50AD165B951F8043B27
:1022200084EA0204B4EB032F09D150F8042BEBE746
:102230004FEA13630DE015F0FF0F05D10B684FEA6D
:10224000122223F07F4304E04FF00000FDE8044534
:10225000704712BA1BBA82FA4CF482EA0304A4FA59
:102260008CF5B5FA85F402FA04F203FA04F34FEAA6
:102270001260FDE80445A0EB1360704780EA01029C
:10228000844612F0030F4FD111F0030F32D14DF8F5
:10229000044D11F0040F51F8043B0BD0A3F10132AF
:1022A0009A4312F0803F04BF4CF8043B51F8043BC2
:1022B00016D100BF51F8044BA3F101329A4312F03A
:1022C000803FA4F101320BD14CF8043BA24312F041
:1022D000803F04BF51F8043B4CF8044BEAD023463E
:1022E0000CF8013B13F0FF0F4FEA3323F8D15DF8F0
:1022F000044B704711F0010F06D011F8012B0CF8B8
:10230000012B002A08BF704711F0020FBFD031F82F
:10231000022B12F0FF0F16BF2CF8022B8CF80020B6
:1023200012F47F4FB3D1704711F8012B0CF8012B39
:10233000002AF9D1704700BF000000000000000033
:1023400090F800F06DE9024520F007016FF0000CF5
:1023500010F0070491F820F040F049804FF000049D
:102360006FF00700D1E9002391F840F000F1080078
:1023700082FA4CF2A4FA8CF283FA4CF3A2FA8CF3B0
:102380004BBBD1E9022382FA4CF200F10800A4FA17
:102390008CF283FA4CF3A2FA8CF3E3B9D1E904236B
:1023A00082FA4CF200F10800A4FA8CF283FA4CF3A2
:1023B000A2FA8CF37BB9D1E9062301F1200182FA5C
:1023C0004CF200F10800A4FA8CF283FA4CF3A2FA62
:1023D0008CF3002BC6D0002A04BF04301A4612BA70
:1023E000B2FA82F2FDE8024500EBD2007047D1E973
:1023F000002304F00305C4F100004FEAC50514F002
:10240000040F91F840F00CFA05F562EA05021CBFD2
:1024100063EA050362464FF00004A9E7A2B330B5B2
:1024200040EA0104A40784460B462AD09CF8000029
:102430000C7884422FD1012A0DD0E64660B11EF8F7
:10244000010F11F8014F6FEA0E03A042134422D18D
:102450001CEB0303F2D1002030BD0468194653F889
:10246000045BA4F1013EAC4284462EEA040E00F166
:1024700004000BD1043A84461946ECD01EF0803F8C
:10248000E9D1032AE9D8D1E7104670479CF800004B
:102490000C78A042D1D0001B30BD00BF30B540EA5F
:1024A0000104A30701D1032A0FD8844601F1FF3E9E
:1024B00007E01EF8011F03F8011B541EC1B19C4622
:1024C00022466346002AF4D130BD0B4684461946A5
:1024D00053F8045BA5F1013424EA050414F0803FAD
:1024E000E4D1043A032A4CF8045B1946EFD8DDE73F
:1024F0006244002CE8D003F8011B9342FBD130BDAD
:1025000071B1034600EB010C01E0634506D01A46A9
:10251000013311780029F8D1101A7047181A704742
:102520000846704771B138B503460C46002501E0F6
:10253000431C05462146184600F036F90028F7D11D
:10254000284638BD00F030B92DE9F04F81464548A6
:102550008E4675461EF801CB10F80C4014F00804A6
:10256000F7D1BCF12D0FE34654D0BCF12B0F08BFBF
:102570009EF800B06FF0004808BF05F1020E1BB1D5
:10258000102B4FD01F4604E0BBF1300F55D00A236B
:102590001F460025B8FBF7F6284607FB168A07E01A
:1025A000864215D329D007FB00C001251EF801BBC8
:1025B000ABF1300CBCF1090F06D9ABF1410CBCF109
:1025C000190F08D8ABF1370C63450DDD002DE7DAA4
:1025D0004FF0FF35EAE7ABF1610CBCF1190F03D8FE
:1025E000ABF1570C6345F1DC002D0BDB04B140422D
:1025F0000AB195BB1160BDE8F08FE245D3DA4FF028
:10260000FF35D3E72223C9F800301AB30EF1FF31AA
:102610004046EFE79EF800B04FF0004805F1020E8B
:102620000124ACE7BBF1300FACD19EF8000000F004
:10263000DF00582807D01F46ABE79EF8003003F0B4
:10264000DF03582B0BD110279EF801B03B460EF14B
:10265000020E9EE74046BDE8F08F8046D6E708238D
:102660001F4696E7398E0108012B02D0242B00D893
:102670006AE710B5FFF784F916230360002010BD48
:10268000012A08D0242A06D8844606481346006842
:102690000A46614658E710B5FFF772F91623036042
:1026A000002010BD04000020012A08D0242A06D8EA
:1026B00084460648134600680A46614644E710B55A
:1026C000FFF75EF916230360002010BD0400002010
:1026D000F8B5CD1C25F0030508350C2D38BF0C25A9
:1026E000002D064623DBA94221D8254F00F0C2F871
:1026F0003A6822B3144603E063682246FBB11C46E5
:1027000023685B1BF8D40B2B15D8636894420CBF6D
:102710003B605360304600F0AFF804F10B00231D1E
:1027200020F00700C21A01D01B1AA350F8BD0C23D9
:1027300033600020F8BD23601C442560EAE7796817
:10274000C9B12946304600F01DF8431C0CD0C41C0A
:1027500024F00304A04205D0211A304600F012F8FC
:10276000013001D02560D5E70C233046336000F0FE
:1027700083F80020F8BD304600F004F87860E0E708
:102780004C01002038B5074D0022044608462A6057
:1027900000F068FF431C00D038BD2B68002BFBD035
:1027A000236038BD5401002011F0FF01034644D0DE
:1027B000820732D110B5046841EA012E4EEA0E4E6E
:1027C0008EEA0402A2F1013323EA0203A4F10132EA
:1027D00022EA0402134313F0803F0FD150F8044F54
:1027E00084EA0E0CA4F10133ACF1013223EA0403B4
:1027F00022EA0C02134313F0803FEFD0037823B991
:1028000036E010F8013F002B32D09942F9D110BDCB
:102810008A4211D09A071846CCD0184613F8012BDB
:10282000002AF5D1104670479907184607D0184678
:1028300001330278002AF7D170478207F7D1026886
:10284000A2F1013323EA020313F0803F08D150F8CC
:10285000042FA2F1013323EA020313F0803FF6D0E4
:102860000378002BE8D010F8013F002BFBD1704714
:10287000184610BD704700BF704700BF81F000418F
:1028800002E000BF83F0004330B54FEA41044FEA55
:10289000430594EA050F08BF90EA020F1FBF54EAF0
:1028A000000C55EA020C7FEA645C7FEA655C00F08C
:1028B000E2804FEA5454D4EB5555B8BF6D420CDD5D
:1028C0002C4480EA020281EA030382EA000083EAE0
:1028D000010180EA020281EA0303362D88BF30BD80
:1028E00011F0004F4FEA01314FF4801C4CEA1131D6
:1028F00002D0404261EB410113F0004F4FEA033335
:102900004CEA133302D0524263EB430394EA050FBF
:1029100000F0A780A4F10104D5F1200E0DDB02FA2E
:102920000EFC22FA05F2801841F1000103FA0EF2C2
:10293000801843FA05F359410EE0A5F120050EF188
:10294000200E012A03FA0EFC28BF4CF0020C43FAB9
:1029500005F3C01851EBE37101F0004507D54FF0C6
:10296000000EDCF1000C7EEB00006EEB0101B1F516
:10297000801F1BD3B1F5001F0CD349085FEA30005C
:102980004FEA3C0C04F101044FEA445212F5800F67
:1029900080F09A80BCF1004F08BF5FEA500C50F104
:1029A000000041EB045141EA050130BD5FEA4C0CE7
:1029B000404141EB0101013C28BFB1F5801FE9D244
:1029C00091F0000F04BF01460020B1FA81F308BF67
:1029D0002033A3F10B03B3F120020CDA0C3208DD33
:1029E00002F1140CC2F10C0201FA0CF021FA02F10E
:1029F0000CE002F11402D8BFC2F1200C01FA02F17E
:102A000020FA0CFCDCBF41EA0C019040E41AA2BFA2
:102A100001EB0451294330BD6FEA04041F3C1CDA6A
:102A20000C340EDC04F11404C4F1200220FA04F08A
:102A300001FA02F340EA030021FA04F345EA030134
:102A400030BDC4F10C04C4F1200220FA02F001FAF6
:102A500004F340EA0300294630BD21FA04F0294678
:102A600030BD94F0000F83F4801306BF81F4801111
:102A70000134013D4EE77FEA645C18BF7FEA655C84
:102A800029D094EA050F08BF90EA020F05D054EA56
:102A9000000C04BF1946104630BD91EA030F1EBF5B
:102AA0000021002030BD5FEA545C05D1400049415F
:102AB00028BF41F0004130BD14F580043CBF01F552
:102AC000801130BD01F0004545F0FE4141F4700138
:102AD0004FF0000030BD7FEA645C1ABF1946104613
:102AE0007FEA655C1CBF0B46024650EA013406BF14
:102AF00052EA033591EA030F41F4002130BD00BFD3
:102B000090F0000F04BF0021704730B54FF480648F
:102B100004F132044FF000054FF0000150E700BF10
:102B200090F0000F04BF0021704730B54FF480646F
:102B300004F1320410F0004548BF40424FF000015C
:102B40003EE700BF42004FEAE2014FEA31014FEA9F
:102B500002701FBF12F07F4393F07F4F81F06051EE
:102B6000704732F07F4208BF704793F07F4F04BF39
:102B700041F40021704730B54FF4607401F0004516
:102B800021F000411CE700BF50EA010208BF704776
:102B900030B54FF000050AE050EA010208BF704767
:102BA00030B511F0004502D5404261EB41014FF4D0
:102BB000806404F132045FEA915C3FF4D8AE4FF0D8
:102BC00003025FEADC0C18BF03325FEADC0C18BFBB
:102BD000033202EBDC02C2F1200300FA03FC20FA0C
:102BE00002F001FA03FE40EA0E0021FA02F1144459
:102BF000BDE600BF70B54FF0FF0C4CF4E06C1CEA72
:102C000011541DBF1CEA135594EA0C0F95EA0C0FE2
:102C100000F0DEF82C4481EA030621EA4C5123EA55
:102C20004C5350EA013518BF52EA033541F4801184
:102C300043F4801338D0A0FB02CE4FF00005E1FB37
:102C400002E506F00042E0FB03E54FF00006E1FB81
:102C500003569CF0000F18BF4EF0010EA4F1FF04C4
:102C6000B6F5007F64F5407404D25FEA4E0E6D4104
:102C700046EB060642EAC62141EA55514FEAC52015
:102C800040EA5E504FEACE2EB4F1FD0C88BFBCF591
:102C9000E06F1ED8BEF1004F08BF5FEA500E50F142
:102CA000000041EB045170BD06F0004646EA010108
:102CB00040EA020081EA0301B4EB5C04C2BFD4EB3A
:102CC0000C0541EA045170BD41F480114FF0000E33
:102CD000013C00F3AB8014F1360FDEBF002001F0A1
:102CE000004170BDC4F10004203C35DA0C341BDC1B
:102CF00004F11404C4F1200500FA05F320FA04F0ED
:102D000001FA05F240EA020001F0004221F0004120
:102D100010EBD37021FA04F642EB06015EEA430E93
:102D200008BF20EAD37070BDC4F10C04C4F12005C3
:102D300000FA04F320FA05F001FA04F240EA020076
:102D400001F0004110EBD37041F100015EEA430E47
:102D500008BF20EAD37070BDC4F1200500FA05F267
:102D60004EEA020E20FA04F301FA05F243EA0203E6
:102D700021FA04F001F0004121FA04F220EA0200F5
:102D800000EBD3705EEA430E08BF20EAD37070BD3B
:102D900094F0000F0FD101F00046400041EB01011B
:102DA00011F4801F08BF013CF7D041EA060195F0FD
:102DB000000F18BF704703F00046520043EB0303B7
:102DC00013F4801F08BF013DF7D043EA06037047A4
:102DD00094EA0C0F0CEA135518BF95EA0C0F0CD0AF
:102DE00050EA410618BF52EA4306D1D181EA0301F5
:102DF00001F000414FF0000070BD50EA410606BFEF
:102E00001046194652EA430619D094EA0C0F02D133
:102E100050EA013613D195EA0C0F05D152EA033678
:102E20001CBF104619460AD181EA030101F0004196
:102E300041F0FE4141F470014FF0000070BD41F0DF
:102E4000FE4141F4780170BD70B54FF0FF0C4CF4B9
:102E5000E06C1CEA11541DBF1CEA135594EA0C0FD8
:102E600095EA0C0F00F0A7F8A4EB050481EA030E25
:102E700052EA03354FEA013100F088804FEA03330C
:102E80004FF0805545EA131343EA12634FEA0222DA
:102E900045EA111545EA10654FEA00260EF000419B
:102EA0009D4208BF964244F1FD0404F5407402D2ED
:102EB0005B084FEA3202B61A65EB03055B084FEA7E
:102EC00032024FF480104FF4002CB6EB020E75EB7B
:102ED000030E22BFB61A754640EA0C005B084FEAA3
:102EE0003202B6EB020E75EB030E22BFB61A754620
:102EF00040EA5C005B084FEA3202B6EB020E75EB6B
:102F0000030E22BFB61A754640EA9C005B084FEAE2
:102F10003202B6EB020E75EB030E22BFB61A7546EF
:102F200040EADC0055EA060E18D04FEA051545EADE
:102F300016754FEA06164FEAC30343EA52734FEA87
:102F4000C2025FEA1C1CC0D111F4801F0BD141EA00
:102F500000014FF000004FF0004CB6E711F4801F65
:102F600004BF01430020B4F1FD0C88BFBCF5E06F45
:102F70003FF6AFAEB5EB030C04BFB6EB020C5FEA55
:102F8000500C50F1000041EB045170BD0EF0004EAA
:102F90004EEA113114EB5C04C2BFD4EB0C0541EADC
:102FA000045170BD41F480114FF0000E013C90E6D9
:102FB00045EA060E8DE60CEA135594EA0C0F08BF9D
:102FC00095EA0C0F3FF43BAF94EA0C0F0AD150EA9C
:102FD00001347FF434AF95EA0C0F7FF425AF10462F
:102FE00019462CE795EA0C0F06D152EA03353FF457
:102FF000FDAE1046194622E750EA410618BF52EAD4
:1030000043067FF4C5AE50EA41047FF40DAF52EAA7
:1030100043057FF4EBAE12E74FF0FF3C06E000BF44
:103020004FF0010C02E000BF4FF0010C4DF804CD51
:103030004FEA410C7FEA6C5C4FEA430C18BF7FEA11
:103040006C5C1BD001B050EA410C0CBF52EA430C3F
:1030500091EA030F02BF90EA020F0020704710F1BF
:10306000000F91EA030F58BF994208BF90422CBF4E
:10307000D8176FEAE37040F0010070474FEA410C47
:103080007FEA6C5C02D150EA013C07D14FEA430C65
:103090007FEA6C5CD6D152EA033CD3D05DF8040BD6
:1030A000704700BF8446104662468C461946634608
:1030B00000E000BF01B5FFF7B7FF002848BF10F1DF
:1030C000000F01BD4DF808EDFFF7F4FF0CBF012024
:1030D00000205DF808FB00BF4DF808EDFFF7EAFFA0
:1030E00034BF012000205DF808FB00BF4DF808ED5B
:1030F000FFF7E0FF94BF012000205DF808FB00BF50
:103100004DF808EDFFF7CEFF94BF012000205DF8D9
:1031100008FB00BF4DF808EDFFF7C4FF34BF0120E6
:1031200000205DF808FB00BF4FEA410C7FEA6C5CB1
:1031300002D150EA013C0AD14FEA430C7FEA6C5CB1
:1031400002D152EA033C02D14FF0000070474FF029
:10315000010070474FEA4102B2F1E04324BFB3F5EA
:10316000001CDCF1FE5C0DD901F0004C4FEAC002FE
:103170004CEA5070B2F1004F40EB830008BF20F0E2
:103180000100704711F0804F21D113F13872BCBF9C
:1031900001F00040704741F480114FEA5252C2F1F1
:1031A0001802C2F1200C10FA0CF320FA02F018BF3A
:1031B00040F001004FEAC1234FEAD32303FA0CFC8D
:1031C00040EA0C0023FA02F34FEA4303CCE77FEA1C
:1031D000625307D150EA01331EBF4FF0FE4040F466
:1031E0004000704701F0004040F0FE4040F4000015
:1031F000704700BF7BB972B90029BEBF00204FF0F5
:10320000004106E008BF00281CBF6FF000414FF0EE
:10321000FF3000F0F5B9ADF1080C6DE904CE0029DE
:1032200009DB002B1ADB00F083F8DDF804E0DDE9B0
:10323000022304B07047404261EB4101002B1BDBCD
:1032400000F076F8DDF804E0DDE9022304B0404246
:1032500061EB4101524263EB43037047524263EB1F
:10326000430300F065F8DDF804E0DDE9022304B073
:10327000404261EB41017047524263EB430300F06F
:1032800057F8DDF804E0DDE9022304B0524263EBB5
:103290004303704753B94AB9002908BF00281CBF2F
:1032A0004FF0FF314FF0FF3000F0AAB9ADF1080C3C
:1032B0006DE904CE00F03CF8DDF804E0DDE902231E
:1032C00004B0704738B50022002304460D46FFF7CE
:1032D00003FF28B920462946BDE8384000F00AB867
:1032E000204605F1004100F005F8404261EB410144
:1032F00038BD00BFD0B50C4B002206460F46FFF785
:1033000079FC00F07FF90446FFF7FAFB074B002237
:10331000FFF770FC02460B4630463946FFF7B2FA1B
:1033200000F070F92146D0BD0000F03D0000F041F2
:103330002DE9F047089D04468E46002B4DD18A4268
:10334000944669D9B2FA82F252B101FA02F3C2F19B
:10335000200120FA01F10CFA02FC41EA030E94402C
:103360004FEA1C48210CBEFBF8F61FFA8CF708FB4D
:1033700016E341EA034306FB07F199420AD91CEB25
:10338000030306F1FF3080F01F81994240F21C8157
:10339000023E63445B1AA4B2B3FBF8F008FB10339F
:1033A00044EA034400FB07F7A7420AD91CEB0404D4
:1033B00000F1FF3380F00A81A74240F207816444A4
:1033C000023840EA0640E41B00261DB1D440002329
:1033D000C5E900433146BDE8F0878B4209D9002D8D
:1033E00000F0EF800026C5E9000130463146BDE817
:1033F000F087B3FA83F6002E4AD18B4202D3824281
:1034000000F2F980841A61EB030301209E46002D2F
:10341000E0D0C5E9004EDDE702B9FFDEB2FA82F284
:10342000002A40F09280A1EB0C014FEA1C471FFAE2
:103430008CFE0126200CB1FBF7F307FB131140EAC9
:1034400001410EFB03F0884208D91CEB010103F196
:10345000FF3802D2884200F2CB804346091AA4B258
:10346000B1FBF7F007FB101144EA01440EFB00FE2C
:10347000A64508D91CEB040400F1FF3102D2A64591
:1034800000F2BB800846A4EB0E0440EA03409CE730
:10349000C6F12007B34022FA07FC4CEA030C20FADD
:1034A00007F401FA06F31C43F9404FEA1C4900FAFD
:1034B00006F3B1FBF9F8200C1FFA8CFE09FB18117A
:1034C00040EA014108FB0EF0884202FA06F20BD9ED
:1034D0001CEB010108F1FF3A80F08880884240F23D
:1034E0008580A8F102086144091AA4B2B1FBF9F081
:1034F00009FB101144EA014100FB0EFE8E4508D97C
:103500001CEB010100F1FF346CD28E456AD9023800
:10351000614440EA0840A0FB0294A1EB0E01A142E5
:10352000C846A64656D353D05DB1B3EB080261EB53
:103530000E0101FA07F722FA06F3F1401F43C5E92D
:10354000007100263146BDE8F087C2F12003D84063
:103550000CFA02FC21FA03F3914001434FEA1C47A5
:103560001FFA8CFEB3FBF7F007FB10360B0C43EA97
:10357000064300FB0EF69E4204FA02F408D91CEB47
:10358000030300F1FF382FD29E422DD90238634445
:103590009B1B89B2B3FBF7F607FB163341EA0341E5
:1035A00006FB0EF38B4208D91CEB010106F1FF3834
:1035B00016D28B4214D9023E6144C91A46EA00462B
:1035C00038E72E46284605E70646E3E61846F8E6BD
:1035D0004B45A9D2B9EB020864EB0C0E0138A3E706
:1035E0004646EAE7204694E74046D1E7D0467BE7E7
:1035F000023B614432E7304609E76444023842E75F
:10360000704700BF4A0011D212F5001211D20DD539
:103610006FF47873B3EB62520ED44FEAC12343F0D8
:10362000004343EA505323FA02F070474FF0000082
:10363000704750EA013002D14FF0FF3070474FF031
:1036400000007047024B58221A604FF0FF3070475D
:1036500054010020024B58221A604FF0FF3070478F
:1036600054010020044A05491368002B08BF0B468B
:1036700018441060184670475801002078750020E3
:10368000FEE700BF80B56F469CB01A901A981B9059
:1036900005F040FD00200E9019901890179016909C
:1036A00048F63971C0F6010111A816AA0C9200F073
:1036B000AEF803F049FE0E9902460C980A9200F00B
:1036C000D5F801460A98086003F032FE01460C98CE
:1036D0000B91012100F0CAF801460B98086003F035
:1036E0002DFE01460C980D91022100F0BFF80D99B6
:1036F00002460E9811601090FFE7109802282DDC0A
:10370000FFE7109916A8089000F0B0F80146089855
:103710000968C9430691109900F0A8F80699024675
:1037200008981160109900F0A1F8014608980968FE
:103730000791109900F09AF8079A0146089849886D
:1037400041EA02410991109900F090F80146099868
:103750000860FFE7109801301090CEE716A803909C
:103760000021059100F082F8014603980968019153
:10377000012100F07BF8019902460398126851403C
:103780000291022100F072F8029902460398126831
:1037900051400491032100F069F80499024605980C
:1037A000116040F25C12C2F2000211A911600F9088
:1037B000FFE70F98032821DCFFE70F9911A800F01D
:1037C00055F8006800900F9916A800F04FF80146D0
:1037D0000098096888420CD0FFE7FFE748F65A7066
:1037E000C0F6010000F08AF840F6B83000F049F861
:1037F000F4E7FFE70F9801300F90DAE740F25C1131
:10380000C2F20001002008601B981CB080BD80B58A
:103810006F4686B00490039102920499019105913C
:1038200003980861039805F07BFC102806D1FFE798
:1038300001990398102205F086FC14E00199DDF847
:1038400008C0DCF80000DCF80420DCF80830DCF804
:103850000CC0C1F80CC08B604A600860039810224D
:1038600005F092FCFFE7059806B080BD80B56F4675
:1038700082B0019000910198009900F00BF802B01D
:1038800080BD80B56F4682B00190019813F038FD7D
:1038900002B080BD82B0019000910198009900EBC8
:1038A000810002B0704780B56F4682B001900198E8
:1038B00012F0A6FD02B080BD80B56F4682B00190C7
:1038C000019812F075FE02B080BD80B56F4640F2DF
:1038D0006010C2F2000000F001F880BD81B00090DD
:1038E00000980021016001B0704780B56F4640F23A
:1038F0006410C2F20000FFF7F1FF80BD83B080B515
:103900006F4685B03B61FA60B960049007F108002A
:103910000390049A03980290029B40F6B030C2F2E2
:103920000000043001904FF4807102F0ADFD019869
:10393000FEF706FD0146019805F02EFE002005B0B9
:10394000BDE8804003B0704780B56F4690B00F90DF
:103950000F98079005F063FE43F64B20C0F6000079
:1039600002F000F800F067FE49F29E21C0F6010166
:1039700043F66522C0F600020023069300F026FD00
:103980000EA800F0A5F8069B024668464360036057
:1039900040F26810C2F20000039048F69F71C0F632
:1039A000010101F0B6FB039801F0CAFB0DA800F07D
:1039B00097F8069B024668464360036040F2881011
:1039C000C2F20000049048F6A971C0F6010101F0AE
:1039D000A0FB049801F0B4FB0CA800F089F8069B4A
:1039E000024668464360036040F2A810C2F200003D
:1039F000059048F6AF71C0F6010101F08AFB059809
:103A000001F09EFB06996A460320106040F26410A4
:103A1000C2F2000048F6B472C0F601024FF480739F
:103A200000F06EF806996A460420106040F26010BB
:103A3000C2F2000048F6BF72C0F601024FF44073B4
:103A400000F097F8079810B080BD80B56F4682B03F
:103A5000019000910198009905F09EFD009802B038
:103A600080BD000080B56F4686B00490039105F0DC
:103A7000CAFD20B9FFE7072007F8010C21E00498F0
:103A80004068029005F002FC00EE100AB8EE400A11
:103A90009FED0E1A80EE010A10EE100AFFF752F8A1
:103AA00041EC100B02986946086053EC102B48F665
:103AB000CB70C0F6010001F0D9FA002007F8010C24
:103AC000FFE717F8010C06B080BD00BF0024744961
:103AD00081B0009043F6E530C0F6000001B07047B9
:103AE00081B0009043F63F40C0F6000001B070473F
:103AF00081B0009043F6C760C0F6000001B0704787
:103B000080B56F468EB08446B868CDF830C00B9152
:103B10000A92099307F8150C0C9804900DA80390CD
:103B200000F054FA082012F06BFC0146039807914C
:103B300000F04CFA01460B9A05A800F04FFADDF8A8
:103B400010E007990598069A4A600860079B0A9951
:103B5000BDF8242017F8150CEC46CCF804E0CCF89E
:103B6000000043F6F370C0F6000013F05DF90EB0EC
:103B700080BD80B56F468EB08446B868CDF830C041
:103B80000B910A92099307F8150C0C9804900DA854
:103B9000039000F04FFA082012F032FC014603981F
:103BA000079100F047FA01460B9A05A800F016FAB3
:103BB000DDF810E007990598069A4A600860079BAF
:103BC0000A99BDF8242017F8150CEC46CCF804E04F
:103BD000CCF8000043F6F370C0F6000013F024F9AF
:103BE0000EB080BD80B56F4684B003900291019203
:103BF0000399029A019B00F002F804B080BD80B5E1
:103C00006F4686B0059004910392029340F2C8106B
:103C1000C2F20000019014F0A5F948F6D470C0F685
:103C20000100FFF76BFE01984FF48061FEF768FC1E
:103C30000146019805F0B0FC002006B080BD80B5BB
:103C40006F4684B00390029101920399029A019BFE
:103C500000F002F804B080BD80B56F46A8B00690B1
:103C60000591049203930498012801D1FFE714E120
:103C70000498022840F01081FFE70398406849F259
:103C80000201C0F60101FEF78FF908BBFFE703F060
:103C9000D8FF07A803F077FF0B98AA2801D1FFE708
:103CA00015E002200790AA200B900020C1F6FF70BB
:103CB000119003F09DFC03F0BEFC07A803F0EEFD9D
:103CC00003F0DEFC03F0CEFC03F0A9FCFFE7E2E02A
:103CD0000398406849F20701C0F60101FEF764F954
:103CE000E8B9FFE703F0B6FF14A803F04CFF1898FB
:103CF000BB2801D1FFE711E002201490BB201890EF
:103D000003F076FC03F097FC14A803F0C7FD03F062
:103D1000B7FC03F0A7FC03F082FCFFE7BAE00398CE
:103D2000406849F20D01C0F60101FEF73DF918B9EE
:103D3000FFE703F098FFACE00398406849F21201F6
:103D4000C0F60101FEF730F918B9FFE703F08BFF69
:103D50009EE00398406849F21B01C0F60101FEF79E
:103D600023F938B9FFE701202390239880F31388C3
:103D700000F096F80398406849F22201C0F601016C
:103D8000FEF712F900285BD1FFE749F22500C0F6E3
:103D90000100FFF7B3FD41F28830FFF772FD01F03B
:103DA000CCFD0120019005F05DFA0020029005F0A5
:103DB00059FA019902982691269981F310884EF2BA
:103DC0001001CEF2000108604EF21401CEF20001A3
:103DD00008604EF21801CEF20001086003F0E2FF25
:103DE00002982290FFE72298072814DCFFE7229A26
:103DF0004EF28011CEF200014FF0FF3041F8220068
:103E0000229A4EF28021CEF2000141F8220022983F
:103E100001302290E7E700202590259880F3108854
:103E20000020C1F6FF7000682790279880F308886B
:103E30000420C1F6FF70006821902198804725E09A
:103E40000398406849F24C01C0F60101FEF7ACF856
:103E500048B9FFE705F0B9F901202490249880F3D0
:103E6000138800F01DF80398406849F25401C0F629
:103E70000101FEF799F838B9FFE749F25D00C0F695
:103E80000100FFF73BFDFFE7FFE7FFE7FFE7FFE785
:103E9000FFE7FFE7FFE7FFE7FFE7002028B080BD6F
:103EA000BFF34F8F4EF60C51CEF20001086800F4BC
:103EB000E0600422C0F2FA5210430860BFF34F8F53
:103EC000FFE700BFFDE780B56F4684B00390029125
:103ED00001920399029A019B00F002F804B080BDA0
:103EE00080B56F468AB0099008910792069305F055
:103EF000C8F9059005984AF6AB21CAF6AA21A0FB9D
:103F0000012109094BF2C533C9F2A213A1FB032118
:103F1000CA0A44F6D351C1F26201A2FB01C292095E
:103F20000492A0FB0112910944F2075CCCF22E2C02
:103F3000A1FB0CEC4FEA1C4C40F2A32E0CFB0EFC38
:103F4000A1EBCC1CACFB03EC4FEADC2CCDF808C099
:103F5000A1FB0331C90A4FF461635943C1EB9211CC
:103F600048F68902C8F68802A1FB0221490903919B
:103F700000EE100AB8EE400ADFED130AFCF76AFA09
:103F800010EE100AFEF7DEFD41EC100B51EC100BA9
:103F90009FED0B0B53EC102BFEF756FF029A039B81
:103FA0008C4604994CEC100B684680ED000B49F2EE
:103FB0009100C0F60100FFF7A1FC00200AB080BD0F
:103FC0000000000000408F4000606A4781B0009010
:103FD00044F20B00C0F6000001B0704783B00290BD
:103FE000019100920298019901600099416003B02B
:103FF000704780B56F4682B001900198009000989C
:1040000001684068884702B080BD80B56F4682B0C5
:104010000190019900F002F802B080BD80B56F46B2
:1040200082B001900091FFE705F066FB0A2013F0D3
:1040300067F9F9E781B0009044F24500C0F600004E
:1040400001B0704780B56F4682B00190019900F0D1
:1040500002F802B080BD80B56F4682B00190009139
:10406000FFE7FFE705F0CFFA20B9FFE70120FFF7F0
:1040700008FCF7E701F09EFFFFE705F0CAFA28B158
:10408000FFE705F09BFA01F095F8FFE705F0BBFAB2
:1040900008B9FFE703E00A2013F032F9EDE7E0E7A3
:1040A00080B56F46FFF711FCFFF71FFC80BD80B5A0
:1040B0006F4686B005900598029000F01BF80298B4
:1040C00008300190FFF70AFC0198029940F2C852AB
:1040D000C2F2000211606A460321116049F2BC027B
:1040E000C0F6010200214FF4807300F012F802982C
:1040F00006B080BD80B56F4682B0019001980090F7
:10410000043000F067F8009800F0DDFC009802B081
:1041100080BD80B56F468EB08446B868CDF830C09B
:104120000B910A92099307F8150C0C9804900DA8AE
:10413000039000F05DF8082012F062F90146039840
:10414000079100F055F801460B9A05A8FFF746FFC6
:10415000DDF810E007990598069A4A600860079B09
:104160000A99BDF8242017F8150CEC46CCF804E0A9
:10417000CCF8000043F6F370C0F6000012F054FED5
:104180000EB080BD80B56F4684B002900191029858
:10419000007BC00720B9FFE7012007F8010C15E0FC
:1041A00002994889013048810299088949898842E1
:1041B00008DCFFE7029900204881029908684968F5
:1041C0008847FFE7012007F8010CFFE717F8010C0B
:1041D00004B080BD80B56F4682B001900198009018
:1041E000012012F0A2FA01460098016002B080BDE1
:1041F00081B0009044F20120C0F6000001B0704789
:1042000080B56F4682B00190019900F002F802B0CB
:1042100080BD80B56F4684B00390029105F031F8FF
:104220000190FFE740F2C850C2F200000090006821
:1042300044F28511C0F60001002200F008F8009851
:1042400000680830012101AA00F030F8EAE780B5E3
:104250006F4688B007900691059207980090043049
:1042600000F032F800980021049100680490FFE704
:1042700000990498884213D0FFE7049802900298AE
:104280001038019001980390069A03980599904779
:1042900008B9FFE704E0FFE7049800680490E7E747
:1042A0000098043000F01FF808B080BD80B56F465C
:1042B00084B0039002910192FFE70198029912F0F5
:1042C000B3FEFFE704B080BD80B56F4682B00190B9
:1042D000019800684FF0FF3112F046FC002818BF2B
:1042E000012002B080BD80B56F4682B00190019878
:1042F0000068002319461A4612F072FA02B080BD17
:10430000F0B503AF2DE9000782B08A465AF8046F72
:10431000564555D098469146044604E00120D8B34E
:10432000366856454CD056F8140C10B121688142BD
:10433000F4D116F8101C022922D0606801290FD090
:104340000029EBD156E9033221689D18A942E5D333
:1043500056F8041C1844FDF73DFB0028DED10BE0A5
:1043600056F80C1C22680B1D9A42D7D3405856E9C8
:104370000212401A9042D1D200200028D0D10BE086
:1043800056E903012268084482424FF0000038BF1A
:1043900001200028C4D100BF16F8100C022803D257
:1043A0007068D4E9002105E0BAD1616856E90332AA
:1043B000706819444B46CDF8008000F09EFAAFE7D4
:1043C000002002B0BDE80007F0BD000082B0F0B5EB
:1043D00003AF2DE9000782B004460D4607F108003F
:1043E000C7E9022301900CB175B9A0E0019A10460B
:1043F00050F8041F019052F8080B019200F072FC73
:104400000446002D00F093802878002800F08F806B
:1044100048F6386A49F2C7086E1CC0F6010A4FF028
:104420000009C0F6010804E016F8010B002800F0AE
:104430007E800AEB00014978024601F0030102295F
:1044400008BF203A012908BF0246A2F141011729FD
:104450004FF0000000F26C80DFE801F01A6A1E0CD9
:1044600022306A6A6A6A3B496A6A6A6A6A6A5159A8
:104470006A6A6A610198014651F8043F019150F857
:10448000082B414601900020009400F059F8CBE73A
:10449000204600F092FCC7E7606811F0B1FF42E0EF
:1044A000019A104650F8041F02F10C0301901068A5
:1044B00092680193234600F064FDB5E70198011D61
:1044C00001910168216500F1080140680191606572
:1044D000AAE7019A104650F8041F936801901068EB
:1044E00002F10C052246019500F04BFD9CE7019876
:1044F000011D01910168204600F0FBFC94E7019842
:10450000011D01910168204600F0D4FC8CE7019860
:10451000011D01910068214600F0EBFC84E7019841
:10452000011D01910068206184F800907CE720461D
:1045300002B0BDE80007BDE8F04002B070470000DF
:1045400082B0F0B503AF4DF8048D82B00D46BA606D
:10455000FB6028B10021044600F09DFC2DB938E035
:10456000002000F086FC04469DB3287807F108017E
:10457000019170B348F638660135C0F601064FF078
:10458000040809E00198011D01910068214600F02E
:1045900091FC15F8010BE0B13118497801F00302E4
:1045A000022A014608BF2039012A08BF01465429C2
:1045B000E8D044290CD184F800800198011D0191B4
:1045C0000168E16000F10801406801912061E0E7C5
:1045D0000024204602B05DF8048BBDE8F04002B034
:1045E0007047B0B502AF40F2CC5049F2CA01C2F2F6
:1045F0000000C0F601013D2200F0ABFB01200021CC
:104600000322012412F034F840F22865C2F20005BA
:10461000002100220023286012F0E2F8286800211F
:104620000022002312F0DCF840F22C61C2F20001FB
:1046300000200C70B0BD40F2CC50C2F200007047B8
:10464000F0B503AF2DE9000F83B0154640F22C62A0
:10465000C2F200021278012A40D140F2286AC2F266
:10466000000A0646DAF800000C46D7F808B04FF00A
:10467000FF31994612F078FA40F22D68C2F2000834
:1046800088F83C4040F26A64C2F2000449F2D10268
:10469000C0F6010220463C213346CDF800B002F0BE
:1046A000BFFC07F10C0340463C212246029301F077
:1046B000EBFE40F2CC50C2F2000041463D222B46B8
:1046C000CDF8009000F019F9DAF800100446084619
:1046D00000210022002312F083F800E00724204686
:1046E00003B0BDE8000FF0BDF0B503AF2DE9000742
:1046F00004460078042828D80E46DFE800F061035D
:104700002A2D3200E0689246806883B3002100229F
:1047100012F012FB012832D1D4F80C80B14659F8BE
:104720000C0FD8F80410884209D8D8F85020002A75
:1047300054D0D8F854104846904700284ED0E0682E
:104740000021806812F0A2F93AE00120BDE80007DC
:10475000F0BD0120207333E0E068316900F095F985
:104760002EE0D4E9032106F10C00904728E0BAF1CD
:10477000000F08D04FF0FF3112F0F6F908E00320E7
:10478000BDE80007F0BD002112F0EEF9012817D1B5
:10479000D4F80C80B14659F80C0FD8F804108842B0
:1047A00007D8D8F850207AB1D8F854104846904726
:1047B00050B1E068002180680022002312F010F858
:1047C0000020BDE80007F0BD98F8000080B108F1B6
:1047D0000C0049460822FDF72FF912E098F8000076
:1047E00040B308F10C0049460822FDF725F92AE0FC
:1047F000D8F81000D6E90321FDF71EF9F068C8F8D3
:104800000C00D8F8581029B108F10C0052460023CA
:10481000FFF776FD464656F8485FB542C9D000BF5F
:10482000281F414652460023FFF75EFF2D68B54220
:10483000F6D1BEE7D8F81000D6E90321FDF7FCF861
:10484000F068C8F80C00D8F8581029B108F10C002D
:1048500052460123FFF754FD464656F8485FB542DD
:104860003FF46DAF281F414652460123FFF73CFF3E
:104870002D68B542F6D162E7F0B503AF2DE9000728
:104880000546884608686968884207D892462A6DB6
:1048900099463AB1696D4046904718B10120BDE88C
:1048A0000007F0BD287830B105F10C004146082220
:1048B000FDF7C2F807E02869D8E90021FDF7BCF848
:1048C000D8F80000E860A96D29B105F10C00524646
:1048D0004B46FFF715FD2C4654F8486FA64208D00A
:1048E000301F294652464B46FFF7FEFE3668A64269
:1048F000F6D10020BDE80007F0BDF0B503AF2DE90B
:10490000000B82B0D7F80880044680681E469146A6
:10491000B8F1000F0D4606D00021002212F00CFA6B
:1049200001280BD01DE026B14FF0FF3112F01CF929
:1049300004E0002112F018F9012812D1694620463E
:1049400032464346CDE90095FFF796FFA168B8F1DE
:10495000000F044608464FF0000104D012F096F80C
:1049600005E0032403E00022002311F039FF204674
:1049700002B0BDE8000BF0BDB0B502AF04460020A8
:1049800000F077FA054600F03EFB2046294600F08D
:1049900091FA2846B0BDF0B503AF4DF804BD054609
:1049A000007B60B1A868144680680E464AB10021B9
:1049B000002212F0C1F9012807D003241AE00124D3
:1049C00018E04FF0FF3112F0CFF80020A9682873EB
:1049D000D1E903213046FDF72FF8A868002180684F
:1049E0001CB1002412F052F804E00022002300243D
:1049F00011F0F6FE20465DF804BBF0BDD0B502AF65
:104A000040F2A66C0020C2F2000C00BF0CF80000BF
:104A10000130B0F5807FF9D14FF0000E8C2200BF3D
:104A20001CF80E306FF00700194682EA5303CC07DA
:104A300008BF4B080130F7D30CF80E300EF1010E11
:104A4000BEF5807F08BFD0BDEAE70000D0B502AF59
:104A500048F2203140F2A87C4FF0000ECEF6B8515B
:104A6000C2F2000C0823704681EA5002C40708BF56
:104A70004208013B1046F7D14CF82E000EF1010E12
:104A8000BEF5807F08BFD0BDECE7D0B502AF0446CD
:104A9000007A00281CBF0520D0BD2068D4E904237B
:104AA00002FB0030FCF7C8FFD4E90001E268431CB8
:104AB0000020934228BF03468B42236002BF01209F
:104AC00020720020D0BD006070470A680260086054
:104AD000704780B56F46006800F001F880BDB0B542
:104AE00002AF90B10D46416804462846FDF75CFAD6
:104AF000002808D04FF00C0048BF08202058294655
:104B0000FFF7EDFF04462046B0BD0020B0BD000019
:104B1000F0B503AF4DF8048D0026C1E902660E61C1
:104B2000804600680D460121297060B1064668681C
:104B30007168FDF739FA00284FF00C0048BF0820D3
:104B400030580028F2D12E615EB168687168FDF7B7
:104B50002BFAB0F1FF3FCCBF06F10C0006F10800C4
:104B600000E0404605602A694FF0000C002A85F8F5
:104B700000C000F09280012106E000BF2A461546E1
:104B80001269002A00F089801378002B40F085809C
:104B900013699E68B24207D00EB1307860B1012629
:104BA000002EEBD00FE000BFDE680EB13478FCB110
:104BB0000126002EE2D022E0317000261D46117041
:104BC0001E70002EDAD09668AE4202D014462A46F5
:104BD0002FE0F468002C946018BF226110693061E6
:104BE00014690CB354F80C0F904218BF043C1CE03D
:104BF000317000261D4611701E70002EBED0D66882
:104C0000AE4202D014462A462FE0B468002CD4608D
:104C100018BF22611469346114690CB354F8080F89
:104C2000904218BF04341CE0444626602C46F260D3
:104C30001661DE682170B56883F800C0002DDD6064
:104C400018BF2B61186930611D692DB155F8080F27
:104C5000984218BF043500E045462E60B3601AE064
:104C6000444626602C46B26016619E682170F56845
:104C700083F800C0002D9D6018BF2B61186930615A
:104C80001D692DB155F80C0F984218BF043D00E086
:104C900045462E60F3601E6171E7D8F800100122CE
:104CA00001200A705DF8048BF0BDD0B502AF012081
:104CB0000021032211F0DCFC40F6AC34C2F2000407
:104CC000002100220023206011F08AFD20680021CD
:104CD0000022002311F084FDFFF7B8FEFFF78EFEDF
:104CE0000020D0BDF0B503AF4DF8048D06465C2022
:104CF000884611F085FB00215C220446FCF7B2FFD8
:104D000004F11405284631461922FDF7C7FB01209E
:104D1000207004F14800A563C4F80480FFF7D3FEB7
:104D200004F14C00FFF7CFFE01200021032211F017
:104D30009FFC002100220023A06011F051FDA0681B
:104D400000210022002311F04BFD20465DF8048B6A
:104D5000F0BDF0B503AF4DF8048D90460E4600212E
:104D60005C220446FCF77EFF04F114052846314618
:104D70001922FDF793FB0120207004F14800A56380
:104D8000C4F80480FFF79FFE04F14C00FFF79BFE80
:104D900001200021032211F06BFC002100220023DE
:104DA000A06011F01DFDA06800210022002311F079
:104DB00017FD20465DF8048BF0BDB0B502AF044688
:104DC0001430002100F01EF800281CBF0120B0BDE7
:104DD00040F6AC35C2F2000528684FF0FF3111F003
:104DE000C3FE40F6A83004F13401C2F20000FFF720
:104DF0008FFE2868002100220023002411F0F0FC1F
:104E00002046B0BDF0B503AF2DE9000B40F6AC393C
:104E100040F6A8380D460446C2F20009C2F2000866
:104E200005E000BF012012F06BFA013DC5B1D9F8D1
:104E300000004FF0FF3111F097FE40462146FFF78A
:104E400048FED9F80010064608460021002200233B
:104E500011F0C6FC46B9002DE4D10025002DE6D1A5
:104E60000020BDE8000BF0BDA6F13400BDE8000B4A
:104E7000F0BDB0B502AF0446142011F0C1FA002114
:104E800014220546FCF7EEFE002C1EBF0120287000
:104E9000EC602846B0BDB0B502AF0D46002114222B
:104EA0000446FCF7DFFE002D1EBF01202070E560E8
:104EB0002046B0BDF0B503AF4DF804BD40F6AC36AA
:104EC000C2F20006054630680C468D604FF0FF3197
:104ED00011F04AFE201D05F14801FFF7F6FD30688C
:104EE00000210022002311F07BFC00205DF804BBB0
:104EF000F0BDF0B503AF2DE9000B05461420884640
:104F000011F07EFA002114220646FCF7ABFE40F6B3
:104F1000AC39B8F1000F1EBF01203070C6F80C800C
:104F2000C2F20009D9F800004FF0FF31B56011F06E
:104F30001BFE301D05F14801FFF7C7FDD9F8000041
:104F400000210022002311F04BFC0C2011F058FA34
:104F500004464660D9F800004FF0FF31A56011F01B
:104F600003FE08F14C012046FFF7AFFDD9F8000021
:104F700000210022002311F033FC0020BDE8000BCB
:104F8000F0BDF0B503AF2DE9000B16460C4600212D
:104F9000142298460546FCF765FE40F6AC39B8F198
:104FA000000F1EBF01202870C5F80C80C2F2000956
:104FB000D9F800004FF0FF31AE6011F0D5FD281D8B
:104FC00006F14801FFF781FDD9F800000021002219
:104FD000002311F005FCD9F800004FF0FF316560A7
:104FE000A66011F0C1FD08F14C012046FFF76DFDF0
:104FF000D9F8000000210022002311F0F1FB00206D
:10500000BDE8000BF0BD0146022008700022002020
:105010000A737047D0B502AFFFF747FE0446FFF7AB
:10502000E0FA2044C0B2D0BD83B0B0B502AF81B0C9
:1050300040F6B035C2F20005844607F108002C1D89
:105040000EC007F1080320464FF4807162460093BA
:1050500001F01AFA2D682046FDF772F90146204644
:10506000A84701B0BDE8B04003B0704783B0F0B5C9
:1050700003AF4DF804BD83B040F6B035C2F2000571
:10508000844607F108002C1D0EC007F108032046D6
:105090004FF480716246029301F0F6F92A6849F2F2
:1050A000BF20C0F60100062190472E682046FDF77C
:1050B00047F901462046B047D5F8F40405F57A7162
:1050C000884212BF046849F2FE04C0F6010449F2A6
:1050D000DA0049F2EC0149F2F20249F2F703C0F6B4
:1050E0000100C0F60101C0F60102C0F60103009400
:1050F000FFF79AFF48F6D17005F58271C0F60100FE
:10510000FFF792FF03B05DF804BBBDE8F04003B0C9
:105110007047D0B502AFD7E902EC002404770160F4
:10512000C0E9023E80F810C04261D0BDB0B502AF08
:105130000C46054618300831FFF7C7FC6C60B0BD5F
:10514000B0B502AF40F6B035C2F2000504461830E3
:1051500005F55C71FFF7B9FC05F55A706060B0BDEC
:1051600080B56F4682B040F6B031C2F20001D1F88E
:10517000F40401F57A71884212BFD0F800C049F2F8
:10518000FE0CC0F6010C49F2DA0049F2EC0149F2DA
:10519000F20249F2F703C0F60100C0F60101C0F6C1
:1051A0000102C0F60103CDF800C0FFF73DFF02B0D9
:1051B00080BD0000F0B503AF2DE9000F83B00D28CE
:1051C00002D00A2840F0D78040F6B036C2F200067E
:1051D000D6F8E804D6F8EC1432680844C6F8E804B7
:1051E00049F28E00C0F6010003219047D6F8E8048A
:1051F00006F58278002408F80040B6F842034CF621
:10520000CD4500FB05F1C90C01EB8101A0EB41018B
:1052100089B206EB411101304FF48072A6F84203C7
:1052200001F5BE704146A6F84023FDF727F8B6F811
:10523000420300FB05F1C90C01EB8101A0EB410029
:10524000B6F84413A6F84203013188B20A28D6F80A
:10525000E80428BF0A21A6F8441370B101383118B8
:1052600091F80421202A08D101F58271C6F8E804DA
:105270000C70D6F8E8040028F0D106F2031100BF44
:1052800011F8010F2028FBD0D6F8E804002844D0FC
:1052900006F5927528462022C6F86451FDF7FEF8FF
:1052A00000200021002405E0DBB1E2B2062A01F172
:1052B000010116D016FA81F292F82431202BF3D195
:1052C0008BB2334493F8253102F59272202B107083
:1052D000EBD00134E3B2013206EB8303C3F864215F
:1052E000E3E7284600F076FF70B1416969B949F2F9
:1052F0000120C0F60100FFF797FE326849F28E00E8
:10530000C0F6010003219047002030B1436901211C
:1053100051FA84F106F5B2729847D6F8F40406F50E
:105320007A71884212BF056849F2FE05C0F6010590
:1053300049F2DA0049F2EC0149F2F20249F2F703CC
:10534000C0F60100C0F60101C0F60102C0F601037B
:105350000095FFF769FE0020C6F8E804C6F8EC04E3
:1053600086F8F004404600212022FCF77BFC03B0C5
:10537000BDE8000FF0BD40F6B03AC2F2000A9AF85C
:10538000F01489B1022941D00129F0D148F63862E0
:10539000C0F601021044407810F0970F00F01B8215
:1053A000481C8AF8F004E2E71A284EDC032800F0D3
:1053B000A480092840F044820AF2031111F8010F79
:1053C0002028FBD00AF592752846FCF757FF28469F
:1053D0002021FDF7A7F8002818BF451C28462F21DB
:1053E000FDF7A0F8AB4630B183461BF8011F00293A
:1053F0001CBF00210170AB4500F01181284600F070
:1054000055FE0028B3D0814601241BE14138032812
:1054100000F2E181DFE800F002A7C6DCBAF9400340
:10542000BAF8442381B2B1F5807F40F0ED80002AC4
:1054300000F0F280BAF842034CF6CD410930CCF6C8
:10544000CC41A0FB0112D108BBE11B2800F0D880A1
:105450007F2840F0F581DAF8E80400283FF487AFB0
:1054600049F21620C0F60100FFF7DEFDDAF8E80485
:1054700000210138CAF8E804504480F80411DAF831
:10548000EC0400283FF473AF002000BFDAF8E81402
:105490004218524492F805215144014481F80421F4
:1054A000DAF8EC1401308842F0D3DAF8E8040AF5AF
:1054B000827408440021215449F21A2049F29231A1
:1054C00049F29632C0F60100C0F60101C0F60102B1
:1054D000FFF7AAFDDAF8E804DAF80020DAF8EC14AD
:1054E0002044904748F6D17049F29A31C0F6010045
:1054F000C0F60101FFF798FD39E7DAF8002049F21C
:105500008E00C0F60100032190470020CAF8E8048D
:10551000CAF8EC04DAF800208AF8F00449F2BF2057
:10552000C0F6010006219047DAF8F4040AF57A7112
:10553000884212BF066849F2FE06C0F6010649F22B
:10554000DA0049F2EC0149F2F20249F2F703C0F63F
:105550000100C0F60101C0F60102C0F60103009689
:10556000FFF762FD03E7BAF9400381B20A2916D0BA
:10557000BAF84433BAF842230A2B40F0CB8002F148
:1055800009014CF6CD42CCF6CC42A1FB0223DA084D
:1055900002EB8202A1EB4201814240F0C8804FF44D
:1055A0008071D2E0DAF8EC04002800F01481DAF817
:1055B000E81401380131CAF8E814CAF8EC0448F6D6
:1055C000D17049F28A31C0F60100C0F6010114E041
:1055D000DAF8E804002800F0FE80DAF8EC1401386C
:1055E000CAF8E804481CCAF8EC0448F6D17049F23D
:1055F0008E31C0F60100C0F60101FFF715FDEAE0AB
:1056000001208AF8F004B2E60A2A40F08A80BAF84B
:105610004213884240F0CB804FF48070D5E0DAF836
:10562000F4940AF55A709BF80020A9EB0001B1FA36
:1056300081F1B2FA82F349095B09002A08BF814669
:1056400043EA010448F65771C0F601015846FCF7D9
:10565000ABFC002800F0F38048F65871C0F6010159
:105660005846FCF7A1FC002800F0E9805846029457
:10567000FCF766FE59F8085F80464D454FF0000480
:1056800027D1DAF870530AF55C79A5EB0900B0FA76
:1056900080F00299400908432DD0A0B200283FF4C1
:1056A00066AE012840F09B80DAF8F824116811F802
:1056B0000800002800F0C08041444C1EC0B200F039
:1056C000CFF8A07801340028F8D150E62D684D4578
:1056D000D7D02E4656F8181D58464246FCF79EFE77
:1056E0000028F3D10134A1B2304600F055FEEDE7B9
:1056F0002D684D45D1D02E4656F8181D58464246C5
:10570000FCF78CFE0028F3D10134A1B2304600F042
:1057100043FEEDE7013A0131824208BF4FF4807148
:1057200013E0481E002908BF4FF480704DE046F298
:1057300067610130C6F2666150FB01F18A1002EB2D
:10574000D17101EB8101A0EB410188B2B0F5807FFE
:105750003FD10020CAF8E804CAF8EC04DAF80020C7
:105760008AF8F00449F2BF20C0F6010006219047F4
:10577000DAF8F4040AF57A71884212BF066849F231
:10578000FE06C0F6010649F2DA0049F2EC0149F2E0
:10579000F20249F2F703C0F60100C0F60101C0F6BB
:1057A0000102C0F601030096FFF73EFC13E046F24B
:1057B00067610930C6F2666150FB01F18A1002EBA5
:1057C000D17101EB8101A0EB410080B2B0F5807F87
:1057D00001D000F091FD00208AF8F004C7E5DAF866
:1057E000002049F28E00BAF8FC44C0F60100032103
:1057F0009047FFF7B5FC34B3DAF80020DAF8E81484
:105800000AF582709047BAF8FC041FFA88F18842C2
:105810007FF6ADAD4FF0FF3010FA88F4DAF8F804F7
:10582000006820444078FFF7C5FCBAF8FC04A11CCE
:1058300001348142F2D39AE5127F012A0CD12F2044
:1058400000F00EF893E548F6D1700AF58271C0F6C3
:105850000100FFF7E9FB8AE500287FF42DAF86E51C
:10586000B0B502AF82B040F6B034C2F20004D4F852
:10587000E824D4F8EC1407F8090C0A441D2A45D88A
:1058800061B100BFD4F8E8040A18224492F8032159
:1058900020440844013980F80421F3D12268A7F19B
:1058A000090001219047D4F8E80417F8091C2044A6
:1058B00080F80411D4F8E814D4F8EC040131C4F8E9
:1058C000E81418B3084404F582750021295449F2FC
:1058D0001A2049F2923149F29632C0F60100C0F620
:1058E0000101C0F60102FFF79FFBD4F8E80422682B
:1058F000D4F8EC142844904748F6D17049F29A3114
:10590000C0F60100C0F60101FFF78EFB02B0B0BD8A
:1059100080B56F4640F6B030C2F200000021C0F8FA
:10592000E814C0F8EC14026880F8F01449F2BF20C3
:10593000C0F601000621904780BD80B56F4640F655
:10594000B030C2F200000021C0F8E814C0F8EC1436
:10595000026880F8F01449F2C520C0F60100092160
:10596000904780BDF0B503AF2DE9000F83B040F63E
:10597000B034C2F2000420604FF48070A4F84003F9
:1059800049F27810C0F6010004F554760125C4F8F8
:105990004803304684F8645304F55278FFF793F8CF
:1059A00049F20010C0F6010004F55C79C4F8680300
:1059B000484684F8845304F55A7BFFF784F849F28B
:1059C0000410C0F60100C4F8A80304F56C7084F854
:1059D000C453FFF778F849F20810C0F60100C4F884
:1059E000880304F5647084F8A453FFF76CF804F599
:1059F0007270019049F20C1084F8E453C0F6010073
:105A000004F57475C4F8C80328464FF0010AFFF77F
:105A10005AF804F57A70029049F2F20084F804A46E
:105A2000C0F6010004F57C7AC4F8E8035046FFF79D
:105A30004AF804F560703146FFF747F804F56870DE
:105A40003146C4F86C83FFF740F804F570703146B6
:105A5000C4F88C83FFF739F804F578703146C4F840
:105A6000AC83FFF732F804F580602946C4F8CC8394
:105A7000FFF72BF801980025C4F8EC0349F2111048
:105A8000C0F60100C4F8280445F61140C0F6000035
:105A9000C4F83C0404F58860494684F84454C4F8CA
:105AA0003054C4F8345484F83854FFF70EF849F2EF
:105AB0001510C0F60100C4F8480445F65140C0F680
:105AC0000000C4F85C0404F58C604946C4F82CB4AA
:105AD00084F86454C4F85054C4F8545484F85854A6
:105AE000FEF7F3FF49F21810C0F60100C4F868048D
:105AF00045F67F50C0F60000C4F87C0404F59060C1
